{
  "_format": "hh-sol-artifact-1",
  "contractName": "Test",
  "sourceName": "contracts/farm/test.sol",
  "abi": [
    {
      "inputs": [
        {
          "internalType": "address",
          "name": "_staking",
          "type": "address"
        },
        {
          "internalType": "contract ERC20",
          "name": "_speed",
          "type": "address"
        },
        {
          "internalType": "contract ERC721",
          "name": "_horse",
          "type": "address"
        },
        {
          "internalType": "contract ERC721",
          "name": "_facility",
          "type": "address"
        }
      ],
      "stateMutability": "nonpayable",
      "type": "constructor"
    },
    {
      "anonymous": false,
      "inputs": [
        {
          "indexed": true,
          "internalType": "address",
          "name": "previousOwner",
          "type": "address"
        },
        {
          "indexed": true,
          "internalType": "address",
          "name": "newOwner",
          "type": "address"
        }
      ],
      "name": "OwnershipTransferred",
      "type": "event"
    },
    {
      "inputs": [
        {
          "internalType": "uint256",
          "name": "_tokenId",
          "type": "uint256"
        }
      ],
      "name": "claimHorse",
      "outputs": [],
      "stateMutability": "nonpayable",
      "type": "function"
    },
    {
      "inputs": [],
      "name": "claimSpeed",
      "outputs": [],
      "stateMutability": "nonpayable",
      "type": "function"
    },
    {
      "inputs": [
        {
          "internalType": "uint256",
          "name": "_tokenId",
          "type": "uint256"
        }
      ],
      "name": "claimStable",
      "outputs": [],
      "stateMutability": "nonpayable",
      "type": "function"
    },
    {
      "inputs": [
        {
          "internalType": "uint256",
          "name": "_stableTokenId",
          "type": "uint256"
        },
        {
          "internalType": "uint256",
          "name": "_horseTokenId",
          "type": "uint256"
        }
      ],
      "name": "depositHorseInStable",
      "outputs": [],
      "stateMutability": "nonpayable",
      "type": "function"
    },
    {
      "inputs": [
        {
          "internalType": "uint256",
          "name": "_tokenId",
          "type": "uint256"
        }
      ],
      "name": "depositStable",
      "outputs": [],
      "stateMutability": "nonpayable",
      "type": "function"
    },
    {
      "inputs": [],
      "name": "facility",
      "outputs": [
        {
          "internalType": "contract ERC721",
          "name": "",
          "type": "address"
        }
      ],
      "stateMutability": "view",
      "type": "function"
    },
    {
      "inputs": [],
      "name": "horse",
      "outputs": [
        {
          "internalType": "contract ERC721",
          "name": "",
          "type": "address"
        }
      ],
      "stateMutability": "view",
      "type": "function"
    },
    {
      "inputs": [],
      "name": "horseId",
      "outputs": [
        {
          "internalType": "uint256",
          "name": "",
          "type": "uint256"
        }
      ],
      "stateMutability": "view",
      "type": "function"
    },
    {
      "inputs": [
        {
          "internalType": "address",
          "name": "",
          "type": "address"
        },
        {
          "internalType": "address",
          "name": "",
          "type": "address"
        },
        {
          "internalType": "uint256",
          "name": "",
          "type": "uint256"
        },
        {
          "internalType": "bytes",
          "name": "",
          "type": "bytes"
        }
      ],
      "name": "onERC721Received",
      "outputs": [
        {
          "internalType": "bytes4",
          "name": "",
          "type": "bytes4"
        }
      ],
      "stateMutability": "nonpayable",
      "type": "function"
    },
    {
      "inputs": [],
      "name": "owner",
      "outputs": [
        {
          "internalType": "address",
          "name": "",
          "type": "address"
        }
      ],
      "stateMutability": "view",
      "type": "function"
    },
    {
      "inputs": [],
      "name": "renounceOwnership",
      "outputs": [],
      "stateMutability": "nonpayable",
      "type": "function"
    },
    {
      "inputs": [
        {
          "internalType": "address",
          "name": "_stake",
          "type": "address"
        }
      ],
      "name": "setStakeContract",
      "outputs": [],
      "stateMutability": "nonpayable",
      "type": "function"
    },
    {
      "inputs": [
        {
          "internalType": "uint256",
          "name": "_targetAmount",
          "type": "uint256"
        }
      ],
      "name": "setTargetAmount",
      "outputs": [],
      "stateMutability": "nonpayable",
      "type": "function"
    },
    {
      "inputs": [],
      "name": "speed",
      "outputs": [
        {
          "internalType": "contract ERC20",
          "name": "",
          "type": "address"
        }
      ],
      "stateMutability": "view",
      "type": "function"
    },
    {
      "inputs": [],
      "name": "stableId",
      "outputs": [
        {
          "internalType": "uint256",
          "name": "",
          "type": "uint256"
        }
      ],
      "stateMutability": "view",
      "type": "function"
    },
    {
      "inputs": [],
      "name": "staking",
      "outputs": [
        {
          "internalType": "contract IStaking",
          "name": "",
          "type": "address"
        }
      ],
      "stateMutability": "view",
      "type": "function"
    },
    {
      "inputs": [],
      "name": "targetAmount",
      "outputs": [
        {
          "internalType": "uint256",
          "name": "",
          "type": "uint256"
        }
      ],
      "stateMutability": "view",
      "type": "function"
    },
    {
      "inputs": [
        {
          "internalType": "address",
          "name": "newOwner",
          "type": "address"
        }
      ],
      "name": "transferOwnership",
      "outputs": [],
      "stateMutability": "nonpayable",
      "type": "function"
    },
    {
      "inputs": [
        {
          "internalType": "uint256",
          "name": "_stableTokenId",
          "type": "uint256"
        },
        {
          "internalType": "uint256",
          "name": "_horseTokenId",
          "type": "uint256"
        }
      ],
      "name": "withdrawHorseInStable",
      "outputs": [],
      "stateMutability": "nonpayable",
      "type": "function"
    },
    {
      "inputs": [
        {
          "internalType": "uint256",
          "name": "_stableTokenId",
          "type": "uint256"
        }
      ],
      "name": "withdrawStable",
      "outputs": [],
      "stateMutability": "nonpayable",
      "type": "function"
    }
  ],
  "bytecode": "0x608060405234801561001057600080fd5b506040516200109238038062001092833981016040819052610031916100f5565b61003a3361008d565b600280546001600160a01b039586166001600160a01b0319918216179091556003805494861694821694909417909355600480549285169284169290921790915560058054919093169116179055610154565b600080546001600160a01b038381166001600160a01b0319831681178455604051919092169283917f8be0079c531659141344cd1fd0a4f28419497f9722a3daafe3b4186f6b6457e09190a35050565b6001600160a01b03811681146100f257600080fd5b50565b6000806000806080858703121561010b57600080fd5b8451610116816100dd565b6020860151909450610127816100dd565b6040860151909350610138816100dd565b6060860151909250610149816100dd565b939692955090935050565b610f2e80620001646000396000f3fe608060405234801561001057600080fd5b506004361061012c5760003560e01c80636c51e59d116100ad578063953b8fb811610071578063953b8fb814610272578063c20906ac1461027b578063f2fde38b1461028e578063f6574795146102a1578063f6ac7130146102b457600080fd5b80636c51e59d14610227578063715018a61461023e57806379a2e8ad14610246578063847d500f146102595780638da5cb5b1461026157600080fd5b80634d55ed9b116100f45780634d55ed9b146101c85780634edd8b41146101db578063509484d5146101ee578063629d67891461020157806362c0be101461021457600080fd5b80630ad7d67d146101315780630fcfb05914610146578063150b7a02146101595780633516d56d1461018a5780634cf088d91461019d575b600080fd5b61014461013f366004610ccc565b6102bd565b005b610144610154366004610ccc565b61036c565b61016c610167366004610d17565b610482565b6040516001600160e01b031990911681526020015b60405180910390f35b610144610198366004610df3565b6105ff565b6002546101b0906001600160a01b031681565b6040516001600160a01b039091168152602001610181565b6101446101d6366004610ccc565b6106a8565b6005546101b0906001600160a01b031681565b6101446101fc366004610e15565b6106f5565b61014461020f366004610df3565b61076c565b6004546101b0906001600160a01b031681565b61023060075481565b604051908152602001610181565b61014461085b565b610144610254366004610ccc565b6108af565b610144610955565b6000546001600160a01b03166101b0565b61023060015481565b6003546101b0906001600160a01b031681565b61014461029c366004610e15565b610a9e565b6101446102af366004610ccc565b610b54565b61023060065481565b6000546001600160a01b0316331461030a5760405162461bcd60e51b81526020600482018190526024820152600080516020610ed983398151915260448201526064015b60405180910390fd5b600254604051630ad7d67d60e01b8152600481018390526001600160a01b0390911690630ad7d67d906024015b600060405180830381600087803b15801561035157600080fd5b505af1158015610365573d6000803e3d6000fd5b5050505050565b6000546001600160a01b031633146103b45760405162461bcd60e51b81526020600482018190526024820152600080516020610ed98339815191526044820152606401610301565b60055460025460405163a22cb46560e01b81526001600160a01b0391821660048201526001602482015291169063a22cb46590604401600060405180830381600087803b15801561040457600080fd5b505af1158015610418573d6000803e3d6000fd5b5050600254604051630fcfb05960e01b8152600481018590526001600160a01b039091169250630fcfb0599150602401600060405180830381600087803b15801561046257600080fd5b505af1158015610476573d6000803e3d6000fd5b50505060079190915550565b6003546040516370a0823160e01b81523060048201526000916104fa916001600160a01b03909116906370a0823190602401602060405180830381865afa1580156104d1573d6000803e3d6000fd5b505050506040513d601f19601f820116820180604052508101906104f59190610e37565b610bc0565b6001546003546040516370a0823160e01b81523060048201526001600160a01b03909116906370a0823190602401602060405180830381865afa158015610545573d6000803e3d6000fd5b505050506040513d601f19601f820116820180604052508101906105699190610e37565b10156105ee5760048054600254600654604051632142170760e11b815230948101949094526001600160a01b039182166024850152604484015216906342842e0e90606401600060405180830381600087803b1580156105c857600080fd5b505af11580156105dc573d6000803e3d6000fd5b505050506105ee6007546006546105ff565b50630a85bd0160e11b949350505050565b61063e6040518060400160405280601a81526020017f54657374207769746864726177486f727365496e537461626c6500000000000081525030610c05565b600254604051633516d56d60e01b815260048101849052602481018390526001600160a01b0390911690633516d56d906044015b600060405180830381600087803b15801561068c57600080fd5b505af11580156106a0573d6000803e3d6000fd5b505050505050565b6000546001600160a01b031633146106f05760405162461bcd60e51b81526020600482018190526024820152600080516020610ed98339815191526044820152606401610301565b600155565b6000546001600160a01b0316331461073d5760405162461bcd60e51b81526020600482018190526024820152600080516020610ed98339815191526044820152606401610301565b6002805473ffffffffffffffffffffffffffffffffffffffff19166001600160a01b0392909216919091179055565b6000546001600160a01b031633146107b45760405162461bcd60e51b81526020600482018190526024820152600080516020610ed98339815191526044820152606401610301565b6004805460025460405163a22cb46560e01b81526001600160a01b039182169381019390935260016024840152169063a22cb46590604401600060405180830381600087803b15801561080657600080fd5b505af115801561081a573d6000803e3d6000fd5b50505060068290555060025460405163629d678960e01b815260048101849052602481018390526001600160a01b039091169063629d678990604401610672565b6000546001600160a01b031633146108a35760405162461bcd60e51b81526020600482018190526024820152600080516020610ed98339815191526044820152606401610301565b6108ad6000610c4e565b565b6000546001600160a01b031633146108f75760405162461bcd60e51b81526020600482018190526024820152600080516020610ed98339815191526044820152606401610301565b6005546001600160a01b03166342842e0e3061091b6000546001600160a01b031690565b6040516001600160e01b031960e085901b1681526001600160a01b0392831660048201529116602482015260448101849052606401610337565b6000546001600160a01b0316331461099d5760405162461bcd60e51b81526020600482018190526024820152600080516020610ed98339815191526044820152606401610301565b6003546001600160a01b031663a9059cbb6109c06000546001600160a01b031690565b6003546040516370a0823160e01b81523060048201526001600160a01b03909116906370a0823190602401602060405180830381865afa158015610a08573d6000803e3d6000fd5b505050506040513d601f19601f82011682018060405250810190610a2c9190610e37565b6040516001600160e01b031960e085901b1681526001600160a01b03909216600483015260248201526044016020604051808303816000875af1158015610a77573d6000803e3d6000fd5b505050506040513d601f19601f82011682018060405250810190610a9b9190610e50565b50565b6000546001600160a01b03163314610ae65760405162461bcd60e51b81526020600482018190526024820152600080516020610ed98339815191526044820152606401610301565b6001600160a01b038116610b4b5760405162461bcd60e51b815260206004820152602660248201527f4f776e61626c653a206e6577206f776e657220697320746865207a65726f206160448201526564647265737360d01b6064820152608401610301565b610a9b81610c4e565b6000546001600160a01b03163314610b9c5760405162461bcd60e51b81526020600482018190526024820152600080516020610ed98339815191526044820152606401610301565b6004546001600160a01b03166342842e0e3061091b6000546001600160a01b031690565b610a9b81604051602401610bd691815260200190565b60408051601f198184030181529190526020810180516001600160e01b031663f5b1bba960e01b179052610cab565b610c4a8282604051602401610c1b929190610e72565b60408051601f198184030181529190526020810180516001600160e01b031663319af33360e01b179052610cab565b5050565b600080546001600160a01b0383811673ffffffffffffffffffffffffffffffffffffffff19831681178455604051919092169283917f8be0079c531659141344cd1fd0a4f28419497f9722a3daafe3b4186f6b6457e09190a35050565b80516a636f6e736f6c652e6c6f67602083016000808483855afa5050505050565b600060208284031215610cde57600080fd5b5035919050565b80356001600160a01b0381168114610cfc57600080fd5b919050565b634e487b7160e01b600052604160045260246000fd5b60008060008060808587031215610d2d57600080fd5b610d3685610ce5565b9350610d4460208601610ce5565b925060408501359150606085013567ffffffffffffffff80821115610d6857600080fd5b818701915087601f830112610d7c57600080fd5b813581811115610d8e57610d8e610d01565b604051601f8201601f19908116603f01168101908382118183101715610db657610db6610d01565b816040528281528a6020848701011115610dcf57600080fd5b82602086016020830137600060208483010152809550505050505092959194509250565b60008060408385031215610e0657600080fd5b50508035926020909101359150565b600060208284031215610e2757600080fd5b610e3082610ce5565b9392505050565b600060208284031215610e4957600080fd5b5051919050565b600060208284031215610e6257600080fd5b81518015158114610e3057600080fd5b604081526000835180604084015260005b81811015610ea05760208187018101516060868401015201610e83565b81811115610eb2576000606083860101525b506001600160a01b0393909316602083015250601f91909101601f19160160600191905056fe4f776e61626c653a2063616c6c6572206973206e6f7420746865206f776e6572a2646970667358221220e5441ce4892f4fd6a45447585e9e49e2281e713531e7d30335cf160676f5bff064736f6c634300080b0033",
  "linkReferences": {},
  "deployedLinkReferences": {}
}