{
  "_format": "hh-sol-artifact-1",
  "contractName": "SwapHorse",
  "sourceName": "contracts/SwapHorse.sol",
  "abi": [
    {
      "inputs": [
        {
          "internalType": "address",
          "name": "_oldHorse",
          "type": "address"
        }
      ],
      "stateMutability": "nonpayable",
      "type": "constructor"
    },
    {
      "anonymous": false,
      "inputs": [
        {
          "indexed": false,
          "internalType": "address",
          "name": "user",
          "type": "address"
        },
        {
          "indexed": false,
          "internalType": "uint256",
          "name": "tokenId",
          "type": "uint256"
        },
        {
          "indexed": false,
          "internalType": "address",
          "name": "oldHorse",
          "type": "address"
        }
      ],
      "name": "BurnHorse",
      "type": "event"
    },
    {
      "anonymous": false,
      "inputs": [
        {
          "indexed": true,
          "internalType": "address",
          "name": "previousOwner",
          "type": "address"
        },
        {
          "indexed": true,
          "internalType": "address",
          "name": "newOwner",
          "type": "address"
        }
      ],
      "name": "OwnershipTransferred",
      "type": "event"
    },
    {
      "anonymous": false,
      "inputs": [
        {
          "indexed": false,
          "internalType": "address",
          "name": "user",
          "type": "address"
        },
        {
          "indexed": false,
          "internalType": "uint256[]",
          "name": "tokenIds",
          "type": "uint256[]"
        },
        {
          "indexed": false,
          "internalType": "address",
          "name": "oldHorse",
          "type": "address"
        }
      ],
      "name": "SwapHorses",
      "type": "event"
    },
    {
      "inputs": [],
      "name": "oldHorse",
      "outputs": [
        {
          "internalType": "contract IHorse",
          "name": "",
          "type": "address"
        }
      ],
      "stateMutability": "view",
      "type": "function"
    },
    {
      "inputs": [],
      "name": "owner",
      "outputs": [
        {
          "internalType": "address",
          "name": "",
          "type": "address"
        }
      ],
      "stateMutability": "view",
      "type": "function"
    },
    {
      "inputs": [],
      "name": "renounceOwnership",
      "outputs": [],
      "stateMutability": "nonpayable",
      "type": "function"
    },
    {
      "inputs": [
        {
          "internalType": "uint256[]",
          "name": "_tokenIds",
          "type": "uint256[]"
        }
      ],
      "name": "swapHorses",
      "outputs": [],
      "stateMutability": "nonpayable",
      "type": "function"
    },
    {
      "inputs": [
        {
          "internalType": "address",
          "name": "newOwner",
          "type": "address"
        }
      ],
      "name": "transferOwnership",
      "outputs": [],
      "stateMutability": "nonpayable",
      "type": "function"
    }
  ],
  "bytecode": "0x608060405234801561001057600080fd5b506040516108c33803806108c383398101604081905261002f916100ad565b6100383361005d565b600180546001600160a01b0319166001600160a01b03929092169190911790556100dd565b600080546001600160a01b038381166001600160a01b0319831681178455604051919092169283917f8be0079c531659141344cd1fd0a4f28419497f9722a3daafe3b4186f6b6457e09190a35050565b6000602082840312156100bf57600080fd5b81516001600160a01b03811681146100d657600080fd5b9392505050565b6107d7806100ec6000396000f3fe608060405234801561001057600080fd5b50600436106100575760003560e01c80636a28c0281461005c578063715018a6146100715780638da5cb5b14610079578063f2fde38b146100a2578063f828387d146100b5575b600080fd5b61006f61006a3660046105c8565b6100c8565b005b61006f610424565b6000546001600160a01b03165b6040516001600160a01b03909116815260200160405180910390f35b61006f6100b036600461069b565b61048a565b600154610086906001600160a01b031681565b60005b81518110156101d357600154825133916001600160a01b031690636352211e908590859081106100fd576100fd6106bf565b60200260200101516040518263ffffffff1660e01b815260040161012391815260200190565b6020604051808303816000875af1158015610142573d6000803e3d6000fd5b505050506040513d601f19601f8201168201806040525081019061016691906106d5565b6001600160a01b0316146101c15760405162461bcd60e51b815260206004820152601260248201527f55736572206973206e6f74206f776e65722e000000000000000000000000000060448201526064015b60405180910390fd5b806101cb816106f2565b9150506100cb565b5060015460405163e985e9c560e01b81523360048201523060248201526001600160a01b039091169063e985e9c5906044016020604051808303816000875af1158015610224573d6000803e3d6000fd5b505050506040513d601f19601f82011682018060405250810190610248919061071b565b6102945760405162461bcd60e51b815260206004820152601960248201527f5265717569726520617070726f766520636f6e74726163742e0000000000000060448201526064016101b8565b60005b81518110156103d75760015482516001600160a01b03909116906323b872dd90339030908690869081106102cd576102cd6106bf565b60209081029190910101516040517fffffffff0000000000000000000000000000000000000000000000000000000060e086901b1681526001600160a01b0393841660048201529290911660248301526044820152606401600060405180830381600087803b15801561033f57600080fd5b505af1158015610353573d6000803e3d6000fd5b505050507f4c7acd78e7352bc3791c4e23b14828efcafa6a19e15eb0549a2312534c7aa6bb3383838151811061038b5761038b6106bf565b602090810291909101810151600154604080516001600160a01b03958616815293840192909252929092168183015290519081900360600190a1806103cf816106f2565b915050610297565b506001546040517f8ccdce23e73fd5dc0f976d9cc703d263a76373ed9b87f9cf1517fa24470afc459161041991339185916001600160a01b039091169061073d565b60405180910390a150565b6000546001600160a01b0316331461047e5760405162461bcd60e51b815260206004820181905260248201527f4f776e61626c653a2063616c6c6572206973206e6f7420746865206f776e657260448201526064016101b8565b6104886000610555565b565b6000546001600160a01b031633146104e45760405162461bcd60e51b815260206004820181905260248201527f4f776e61626c653a2063616c6c6572206973206e6f7420746865206f776e657260448201526064016101b8565b6001600160a01b0381166105495760405162461bcd60e51b815260206004820152602660248201527f4f776e61626c653a206e6577206f776e657220697320746865207a65726f206160448201526564647265737360d01b60648201526084016101b8565b61055281610555565b50565b600080546001600160a01b0383811673ffffffffffffffffffffffffffffffffffffffff19831681178455604051919092169283917f8be0079c531659141344cd1fd0a4f28419497f9722a3daafe3b4186f6b6457e09190a35050565b634e487b7160e01b600052604160045260246000fd5b600060208083850312156105db57600080fd5b823567ffffffffffffffff808211156105f357600080fd5b818501915085601f83011261060757600080fd5b813581811115610619576106196105b2565b8060051b604051601f19603f8301168101818110858211171561063e5761063e6105b2565b60405291825284820192508381018501918883111561065c57600080fd5b938501935b8285101561067a57843584529385019392850192610661565b98975050505050505050565b6001600160a01b038116811461055257600080fd5b6000602082840312156106ad57600080fd5b81356106b881610686565b9392505050565b634e487b7160e01b600052603260045260246000fd5b6000602082840312156106e757600080fd5b81516106b881610686565b600060001982141561071457634e487b7160e01b600052601160045260246000fd5b5060010190565b60006020828403121561072d57600080fd5b815180151581146106b857600080fd5b6000606082016001600160a01b0380871684526020606081860152828751808552608087019150828901945060005b818110156107885785518352948301949183019160010161076c565b505080945050508085166040850152505094935050505056fea2646970667358221220f52fc4cc3c40969e74062832e5782a1c4445879a2ee142f3919e67385925b1f364736f6c634300080b0033",
  "linkReferences": {},
  "deployedLinkReferences": {}
}