{
  "_format": "hh-sol-artifact-1",
  "contractName": "Facility",
  "sourceName": "contracts/Facility.sol",
  "abi": [
    {
      "inputs": [
        {
          "internalType": "string",
          "name": "_name",
          "type": "string"
        },
        {
          "internalType": "string",
          "name": "_symbol",
          "type": "string"
        }
      ],
      "stateMutability": "nonpayable",
      "type": "constructor"
    },
    {
      "anonymous": false,
      "inputs": [
        {
          "indexed": true,
          "internalType": "address",
          "name": "owner",
          "type": "address"
        },
        {
          "indexed": true,
          "internalType": "address",
          "name": "approved",
          "type": "address"
        },
        {
          "indexed": true,
          "internalType": "uint256",
          "name": "tokenId",
          "type": "uint256"
        }
      ],
      "name": "Approval",
      "type": "event"
    },
    {
      "anonymous": false,
      "inputs": [
        {
          "indexed": true,
          "internalType": "address",
          "name": "owner",
          "type": "address"
        },
        {
          "indexed": true,
          "internalType": "address",
          "name": "operator",
          "type": "address"
        },
        {
          "indexed": false,
          "internalType": "bool",
          "name": "approved",
          "type": "bool"
        }
      ],
      "name": "ApprovalForAll",
      "type": "event"
    },
    {
      "anonymous": false,
      "inputs": [
        {
          "indexed": false,
          "internalType": "address",
          "name": "admin",
          "type": "address"
        },
        {
          "indexed": false,
          "internalType": "string",
          "name": "uri",
          "type": "string"
        }
      ],
      "name": "ChangeBaseURI",
      "type": "event"
    },
    {
      "anonymous": false,
      "inputs": [
        {
          "indexed": false,
          "internalType": "address",
          "name": "receiver",
          "type": "address"
        },
        {
          "indexed": false,
          "internalType": "uint256",
          "name": "tokenId",
          "type": "uint256"
        }
      ],
      "name": "Mint",
      "type": "event"
    },
    {
      "anonymous": false,
      "inputs": [
        {
          "indexed": true,
          "internalType": "address",
          "name": "previousOwner",
          "type": "address"
        },
        {
          "indexed": true,
          "internalType": "address",
          "name": "newOwner",
          "type": "address"
        }
      ],
      "name": "OwnershipTransferred",
      "type": "event"
    },
    {
      "anonymous": false,
      "inputs": [
        {
          "indexed": true,
          "internalType": "address",
          "name": "from",
          "type": "address"
        },
        {
          "indexed": true,
          "internalType": "address",
          "name": "to",
          "type": "address"
        },
        {
          "indexed": true,
          "internalType": "uint256",
          "name": "tokenId",
          "type": "uint256"
        }
      ],
      "name": "Transfer",
      "type": "event"
    },
    {
      "inputs": [
        {
          "internalType": "address",
          "name": "to",
          "type": "address"
        },
        {
          "internalType": "uint256",
          "name": "tokenId",
          "type": "uint256"
        }
      ],
      "name": "approve",
      "outputs": [],
      "stateMutability": "nonpayable",
      "type": "function"
    },
    {
      "inputs": [
        {
          "internalType": "address",
          "name": "owner",
          "type": "address"
        }
      ],
      "name": "balanceOf",
      "outputs": [
        {
          "internalType": "uint256",
          "name": "",
          "type": "uint256"
        }
      ],
      "stateMutability": "view",
      "type": "function"
    },
    {
      "inputs": [],
      "name": "baseURI",
      "outputs": [
        {
          "internalType": "string",
          "name": "",
          "type": "string"
        }
      ],
      "stateMutability": "view",
      "type": "function"
    },
    {
      "inputs": [
        {
          "internalType": "uint256",
          "name": "tokenId",
          "type": "uint256"
        }
      ],
      "name": "getApproved",
      "outputs": [
        {
          "internalType": "address",
          "name": "",
          "type": "address"
        }
      ],
      "stateMutability": "view",
      "type": "function"
    },
    {
      "inputs": [
        {
          "internalType": "address",
          "name": "owner",
          "type": "address"
        },
        {
          "internalType": "address",
          "name": "operator",
          "type": "address"
        }
      ],
      "name": "isApprovedForAll",
      "outputs": [
        {
          "internalType": "bool",
          "name": "",
          "type": "bool"
        }
      ],
      "stateMutability": "view",
      "type": "function"
    },
    {
      "inputs": [
        {
          "internalType": "uint256",
          "name": "",
          "type": "uint256"
        }
      ],
      "name": "isStable",
      "outputs": [
        {
          "internalType": "bool",
          "name": "",
          "type": "bool"
        }
      ],
      "stateMutability": "view",
      "type": "function"
    },
    {
      "inputs": [
        {
          "internalType": "address",
          "name": "_receiver",
          "type": "address"
        },
        {
          "internalType": "string",
          "name": "_uri",
          "type": "string"
        },
        {
          "internalType": "uint256",
          "name": "_tokenId",
          "type": "uint256"
        },
        {
          "internalType": "uint256",
          "name": "_popularity",
          "type": "uint256"
        },
        {
          "internalType": "uint256",
          "name": "_size",
          "type": "uint256"
        }
      ],
      "name": "mintFacility",
      "outputs": [],
      "stateMutability": "nonpayable",
      "type": "function"
    },
    {
      "inputs": [
        {
          "internalType": "address[]",
          "name": "_receiver",
          "type": "address[]"
        },
        {
          "internalType": "string[]",
          "name": "_uri",
          "type": "string[]"
        },
        {
          "internalType": "uint256[]",
          "name": "_tokenId",
          "type": "uint256[]"
        },
        {
          "internalType": "uint256[]",
          "name": "_popularity",
          "type": "uint256[]"
        },
        {
          "internalType": "uint256[]",
          "name": "_size",
          "type": "uint256[]"
        }
      ],
      "name": "mintFacilitys",
      "outputs": [],
      "stateMutability": "nonpayable",
      "type": "function"
    },
    {
      "inputs": [
        {
          "internalType": "address",
          "name": "_receiver",
          "type": "address"
        },
        {
          "internalType": "string",
          "name": "_uri",
          "type": "string"
        },
        {
          "internalType": "uint256",
          "name": "_tokenId",
          "type": "uint256"
        },
        {
          "internalType": "uint256",
          "name": "_multiplier",
          "type": "uint256"
        },
        {
          "internalType": "uint256",
          "name": "_size",
          "type": "uint256"
        }
      ],
      "name": "mintStable",
      "outputs": [],
      "stateMutability": "nonpayable",
      "type": "function"
    },
    {
      "inputs": [
        {
          "internalType": "address[]",
          "name": "_receiver",
          "type": "address[]"
        },
        {
          "internalType": "string[]",
          "name": "_uri",
          "type": "string[]"
        },
        {
          "internalType": "uint256[]",
          "name": "_tokenId",
          "type": "uint256[]"
        },
        {
          "internalType": "uint256[]",
          "name": "_multiplier",
          "type": "uint256[]"
        },
        {
          "internalType": "uint256[]",
          "name": "_size",
          "type": "uint256[]"
        }
      ],
      "name": "mintStables",
      "outputs": [],
      "stateMutability": "nonpayable",
      "type": "function"
    },
    {
      "inputs": [
        {
          "internalType": "uint256",
          "name": "",
          "type": "uint256"
        }
      ],
      "name": "multipliers",
      "outputs": [
        {
          "internalType": "uint256",
          "name": "",
          "type": "uint256"
        }
      ],
      "stateMutability": "view",
      "type": "function"
    },
    {
      "inputs": [],
      "name": "name",
      "outputs": [
        {
          "internalType": "string",
          "name": "",
          "type": "string"
        }
      ],
      "stateMutability": "view",
      "type": "function"
    },
    {
      "inputs": [],
      "name": "owner",
      "outputs": [
        {
          "internalType": "address",
          "name": "",
          "type": "address"
        }
      ],
      "stateMutability": "view",
      "type": "function"
    },
    {
      "inputs": [
        {
          "internalType": "uint256",
          "name": "tokenId",
          "type": "uint256"
        }
      ],
      "name": "ownerOf",
      "outputs": [
        {
          "internalType": "address",
          "name": "",
          "type": "address"
        }
      ],
      "stateMutability": "view",
      "type": "function"
    },
    {
      "inputs": [
        {
          "internalType": "uint256",
          "name": "",
          "type": "uint256"
        }
      ],
      "name": "popularity",
      "outputs": [
        {
          "internalType": "uint256",
          "name": "",
          "type": "uint256"
        }
      ],
      "stateMutability": "view",
      "type": "function"
    },
    {
      "inputs": [],
      "name": "renounceOwnership",
      "outputs": [],
      "stateMutability": "nonpayable",
      "type": "function"
    },
    {
      "inputs": [
        {
          "internalType": "address",
          "name": "from",
          "type": "address"
        },
        {
          "internalType": "address",
          "name": "to",
          "type": "address"
        },
        {
          "internalType": "uint256",
          "name": "tokenId",
          "type": "uint256"
        }
      ],
      "name": "safeTransferFrom",
      "outputs": [],
      "stateMutability": "nonpayable",
      "type": "function"
    },
    {
      "inputs": [
        {
          "internalType": "address",
          "name": "from",
          "type": "address"
        },
        {
          "internalType": "address",
          "name": "to",
          "type": "address"
        },
        {
          "internalType": "uint256",
          "name": "tokenId",
          "type": "uint256"
        },
        {
          "internalType": "bytes",
          "name": "_data",
          "type": "bytes"
        }
      ],
      "name": "safeTransferFrom",
      "outputs": [],
      "stateMutability": "nonpayable",
      "type": "function"
    },
    {
      "inputs": [
        {
          "internalType": "address",
          "name": "operator",
          "type": "address"
        },
        {
          "internalType": "bool",
          "name": "approved",
          "type": "bool"
        }
      ],
      "name": "setApprovalForAll",
      "outputs": [],
      "stateMutability": "nonpayable",
      "type": "function"
    },
    {
      "inputs": [
        {
          "internalType": "string",
          "name": "_uri",
          "type": "string"
        }
      ],
      "name": "setBaseURI",
      "outputs": [],
      "stateMutability": "nonpayable",
      "type": "function"
    },
    {
      "inputs": [
        {
          "internalType": "uint256",
          "name": "",
          "type": "uint256"
        }
      ],
      "name": "size",
      "outputs": [
        {
          "internalType": "uint256",
          "name": "",
          "type": "uint256"
        }
      ],
      "stateMutability": "view",
      "type": "function"
    },
    {
      "inputs": [
        {
          "internalType": "bytes4",
          "name": "interfaceId",
          "type": "bytes4"
        }
      ],
      "name": "supportsInterface",
      "outputs": [
        {
          "internalType": "bool",
          "name": "",
          "type": "bool"
        }
      ],
      "stateMutability": "view",
      "type": "function"
    },
    {
      "inputs": [],
      "name": "symbol",
      "outputs": [
        {
          "internalType": "string",
          "name": "",
          "type": "string"
        }
      ],
      "stateMutability": "view",
      "type": "function"
    },
    {
      "inputs": [
        {
          "internalType": "uint256",
          "name": "_tokenId",
          "type": "uint256"
        }
      ],
      "name": "tokenURI",
      "outputs": [
        {
          "internalType": "string",
          "name": "",
          "type": "string"
        }
      ],
      "stateMutability": "view",
      "type": "function"
    },
    {
      "inputs": [
        {
          "internalType": "address",
          "name": "from",
          "type": "address"
        },
        {
          "internalType": "address",
          "name": "to",
          "type": "address"
        },
        {
          "internalType": "uint256",
          "name": "tokenId",
          "type": "uint256"
        }
      ],
      "name": "transferFrom",
      "outputs": [],
      "stateMutability": "nonpayable",
      "type": "function"
    },
    {
      "inputs": [
        {
          "internalType": "address",
          "name": "newOwner",
          "type": "address"
        }
      ],
      "name": "transferOwnership",
      "outputs": [],
      "stateMutability": "nonpayable",
      "type": "function"
    }
  ],
  "bytecode": "0x60806040523480156200001157600080fd5b50604051620022333803806200223383398101604081905262000034916200023a565b8181620000413362000077565b815162000056906001906020850190620000c7565b5080516200006c906002906020840190620000c7565b5050505050620002e1565b600080546001600160a01b038381166001600160a01b0319831681178455604051919092169283917f8be0079c531659141344cd1fd0a4f28419497f9722a3daafe3b4186f6b6457e09190a35050565b828054620000d590620002a4565b90600052602060002090601f016020900481019282620000f9576000855562000144565b82601f106200011457805160ff191683800117855562000144565b8280016001018555821562000144579182015b828111156200014457825182559160200191906001019062000127565b506200015292915062000156565b5090565b5b8082111562000152576000815560010162000157565b634e487b7160e01b600052604160045260246000fd5b600082601f8301126200019557600080fd5b81516001600160401b0380821115620001b257620001b26200016d565b604051601f8301601f19908116603f01168101908282118183101715620001dd57620001dd6200016d565b81604052838152602092508683858801011115620001fa57600080fd5b600091505b838210156200021e5785820183015181830184015290820190620001ff565b83821115620002305760008385830101525b9695505050505050565b600080604083850312156200024e57600080fd5b82516001600160401b03808211156200026657600080fd5b620002748683870162000183565b935060208501519150808211156200028b57600080fd5b506200029a8582860162000183565b9150509250929050565b600181811c90821680620002b957607f821691505b60208210811415620002db57634e487b7160e01b600052602260045260246000fd5b50919050565b611f4280620002f16000396000f3fe608060405234801561001057600080fd5b50600436106101ae5760003560e01c806382d43908116100ee578063ac7fc26311610097578063e985e9c511610071578063e985e9c5146103a8578063ea40c416146103e4578063f2fde38b146103f7578063f82a252c1461040a57600080fd5b8063ac7fc26314610362578063b88d4fde14610382578063c87b56dd1461039557600080fd5b80638da5cb5b116100c85780638da5cb5b1461033657806395d89b4114610347578063a22cb4651461034f57600080fd5b806382d43908146102d357806385edea13146102f35780638cbf7cb31461031357600080fd5b806342842e0e1161015b5780636c0360eb116101355780636c0360eb1461028f57806370a0823114610297578063715018a6146102b85780637334a038146102c057600080fd5b806342842e0e1461025657806355f804b3146102695780636352211e1461027c57600080fd5b8063095ea7b31161018c578063095ea7b31461021b57806323b872dd14610230578063248cfb6f1461024357600080fd5b806301ffc9a7146101b357806306fdde03146101db578063081812fc146101f0575b600080fd5b6101c66101c1366004611736565b61041d565b60405190151581526020015b60405180910390f35b6101e361046f565b6040516101d291906117a7565b6102036101fe3660046117ba565b610501565b6040516001600160a01b0390911681526020016101d2565b61022e6102293660046117ef565b61059b565b005b61022e61023e366004611819565b6106b1565b61022e610251366004611914565b61072c565b61022e610264366004611819565b610804565b61022e61027736600461197d565b61081f565b61020361028a3660046117ba565b6108b7565b6101e361092e565b6102aa6102a53660046119b2565b6109bc565b6040519081526020016101d2565b61022e610a43565b61022e6102ce366004611914565b610a97565b6102aa6102e13660046117ba565b600c6020526000908152604090205481565b6102aa6103013660046117ba565b600d6020526000908152604090205481565b6101c66103213660046117ba565b600e6020526000908152604090205460ff1681565b6000546001600160a01b0316610203565b6101e3610b76565b61022e61035d3660046119cd565b610b85565b6102aa6103703660046117ba565b600b6020526000908152604090205481565b61022e610390366004611a09565b610b94565b6101e36103a33660046117ba565b610c16565b6101c66103b6366004611a85565b6001600160a01b03918216600090815260066020908152604080832093909416825291909152205460ff1690565b61022e6103f2366004611c29565b610cb9565b61022e6104053660046119b2565b610db1565b61022e610418366004611c29565b610e6a565b60006001600160e01b031982166380ac58cd60e01b148061044e57506001600160e01b03198216635b5e139f60e01b145b8061046957506301ffc9a760e01b6001600160e01b03198316145b92915050565b60606001805461047e90611cfb565b80601f01602080910402602001604051908101604052809291908181526020018280546104aa90611cfb565b80156104f75780601f106104cc576101008083540402835291602001916104f7565b820191906000526020600020905b8154815290600101906020018083116104da57829003601f168201915b5050505050905090565b6000818152600360205260408120546001600160a01b031661057f5760405162461bcd60e51b815260206004820152602c60248201527f4552433732313a20617070726f76656420717565727920666f72206e6f6e657860448201526b34b9ba32b73a103a37b5b2b760a11b60648201526084015b60405180910390fd5b506000908152600560205260409020546001600160a01b031690565b60006105a6826108b7565b9050806001600160a01b0316836001600160a01b031614156106145760405162461bcd60e51b815260206004820152602160248201527f4552433732313a20617070726f76616c20746f2063757272656e74206f776e656044820152603960f91b6064820152608401610576565b336001600160a01b0382161480610630575061063081336103b6565b6106a25760405162461bcd60e51b815260206004820152603860248201527f4552433732313a20617070726f76652063616c6c6572206973206e6f74206f7760448201527f6e6572206e6f7220617070726f76656420666f7220616c6c00000000000000006064820152608401610576565b6106ac8383610f5a565b505050565b6106bb3382610fc8565b6107215760405162461bcd60e51b815260206004820152603160248201527f4552433732313a207472616e736665722063616c6c6572206973206e6f74206f6044820152701ddb995c881b9bdc88185c1c1c9bdd9959607a1b6064820152608401610576565b6106ac8383836110bf565b6000546001600160a01b031633146107745760405162461bcd60e51b81526020600482018190526024820152600080516020611eed8339815191526044820152606401610576565b61077e858461125f565b6000838152600a60209081526040909120855161079d92870190611687565b506000838152600c60209081526040808320859055600d82529182902083905581516001600160a01b03881681529081018590527f0f6798a560793a54c3bcfe86a93cde1e73087d944c0ea20544137d412139688591015b60405180910390a15050505050565b6106ac83838360405180602001604052806000815250610b94565b6000546001600160a01b031633146108675760405162461bcd60e51b81526020600482018190526024820152600080516020611eed8339815191526044820152606401610576565b805161087a906009906020840190611687565b507f3c42d3d44528567a4b8240087caeb9cbe1566558404b077783b47c2e62d3d2b133826040516108ac929190611d36565b60405180910390a150565b6000818152600360205260408120546001600160a01b0316806104695760405162461bcd60e51b815260206004820152602960248201527f4552433732313a206f776e657220717565727920666f72206e6f6e657869737460448201526832b73a103a37b5b2b760b91b6064820152608401610576565b6009805461093b90611cfb565b80601f016020809104026020016040519081016040528092919081815260200182805461096790611cfb565b80156109b45780601f10610989576101008083540402835291602001916109b4565b820191906000526020600020905b81548152906001019060200180831161099757829003601f168201915b505050505081565b60006001600160a01b038216610a275760405162461bcd60e51b815260206004820152602a60248201527f4552433732313a2062616c616e636520717565727920666f7220746865207a65604482015269726f206164647265737360b01b6064820152608401610576565b506001600160a01b031660009081526004602052604090205490565b6000546001600160a01b03163314610a8b5760405162461bcd60e51b81526020600482018190526024820152600080516020611eed8339815191526044820152606401610576565b610a9560006113a1565b565b6000546001600160a01b03163314610adf5760405162461bcd60e51b81526020600482018190526024820152600080516020611eed8339815191526044820152606401610576565b610ae9858461125f565b6000838152600a602090815260409091208551610b0892870190611687565b506000838152600e60209081526040808320805460ff19166001179055600b8252808320859055600d82529182902083905581516001600160a01b03881681529081018590527f0f6798a560793a54c3bcfe86a93cde1e73087d944c0ea20544137d412139688591016107f5565b60606002805461047e90611cfb565b610b903383836113f1565b5050565b610b9e3383610fc8565b610c045760405162461bcd60e51b815260206004820152603160248201527f4552433732313a207472616e736665722063616c6c6572206973206e6f74206f6044820152701ddb995c881b9bdc88185c1c1c9bdd9959607a1b6064820152608401610576565b610c10848484846114c0565b50505050565b6000818152600360205260409020546060906001600160a01b0316610c7d5760405162461bcd60e51b815260206004820152601f60248201527f55524920717565727920666f72206e6f6e6578697374656e7420746f6b656e006044820152606401610576565b6009600a6000848152602001908152602001600020604051602001610ca3929190611df2565b6040516020818303038152906040529050919050565b6000546001600160a01b03163314610d015760405162461bcd60e51b81526020600482018190526024820152600080516020611eed8339815191526044820152606401610576565b60005b8551811015610da957610d97868281518110610d2257610d22611e1d565b6020026020010151868381518110610d3c57610d3c611e1d565b6020026020010151868481518110610d5657610d56611e1d565b6020026020010151868581518110610d7057610d70611e1d565b6020026020010151868681518110610d8a57610d8a611e1d565b6020026020010151610a97565b80610da181611e49565b915050610d04565b505050505050565b6000546001600160a01b03163314610df95760405162461bcd60e51b81526020600482018190526024820152600080516020611eed8339815191526044820152606401610576565b6001600160a01b038116610e5e5760405162461bcd60e51b815260206004820152602660248201527f4f776e61626c653a206e6577206f776e657220697320746865207a65726f206160448201526564647265737360d01b6064820152608401610576565b610e67816113a1565b50565b6000546001600160a01b03163314610eb25760405162461bcd60e51b81526020600482018190526024820152600080516020611eed8339815191526044820152606401610576565b60005b8551811015610da957610f48868281518110610ed357610ed3611e1d565b6020026020010151868381518110610eed57610eed611e1d565b6020026020010151868481518110610f0757610f07611e1d565b6020026020010151868581518110610f2157610f21611e1d565b6020026020010151868681518110610f3b57610f3b611e1d565b602002602001015161072c565b80610f5281611e49565b915050610eb5565b600081815260056020526040902080546001600160a01b0319166001600160a01b0384169081179091558190610f8f826108b7565b6001600160a01b03167f8c5be1e5ebec7d5bd14f71427d1e84f3dd0314c0f7b2291e5b200ac8c7c3b92560405160405180910390a45050565b6000818152600360205260408120546001600160a01b03166110415760405162461bcd60e51b815260206004820152602c60248201527f4552433732313a206f70657261746f7220717565727920666f72206e6f6e657860448201526b34b9ba32b73a103a37b5b2b760a11b6064820152608401610576565b600061104c836108b7565b9050806001600160a01b0316846001600160a01b031614806110875750836001600160a01b031661107c84610501565b6001600160a01b0316145b806110b757506001600160a01b0380821660009081526006602090815260408083209388168352929052205460ff165b949350505050565b826001600160a01b03166110d2826108b7565b6001600160a01b03161461113a5760405162461bcd60e51b815260206004820152602960248201527f4552433732313a207472616e73666572206f6620746f6b656e2074686174206960448201526839903737ba1037bbb760b91b6064820152608401610576565b6001600160a01b03821661119c5760405162461bcd60e51b8152602060048201526024808201527f4552433732313a207472616e7366657220746f20746865207a65726f206164646044820152637265737360e01b6064820152608401610576565b6111a7600082610f5a565b6001600160a01b03831660009081526004602052604081208054600192906111d0908490611e64565b90915550506001600160a01b03821660009081526004602052604081208054600192906111fe908490611e7b565b909155505060008181526003602052604080822080546001600160a01b0319166001600160a01b0386811691821790925591518493918716917fddf252ad1be2c89b69c2b068fc378daa952ba7f163c4a11628f55a4df523b3ef91a4505050565b6001600160a01b0382166112b55760405162461bcd60e51b815260206004820181905260248201527f4552433732313a206d696e7420746f20746865207a65726f20616464726573736044820152606401610576565b6000818152600360205260409020546001600160a01b03161561131a5760405162461bcd60e51b815260206004820152601c60248201527f4552433732313a20746f6b656e20616c7265616479206d696e746564000000006044820152606401610576565b6001600160a01b0382166000908152600460205260408120805460019290611343908490611e7b565b909155505060008181526003602052604080822080546001600160a01b0319166001600160a01b03861690811790915590518392907fddf252ad1be2c89b69c2b068fc378daa952ba7f163c4a11628f55a4df523b3ef908290a45050565b600080546001600160a01b038381166001600160a01b0319831681178455604051919092169283917f8be0079c531659141344cd1fd0a4f28419497f9722a3daafe3b4186f6b6457e09190a35050565b816001600160a01b0316836001600160a01b031614156114535760405162461bcd60e51b815260206004820152601960248201527f4552433732313a20617070726f766520746f2063616c6c6572000000000000006044820152606401610576565b6001600160a01b03838116600081815260066020908152604080832094871680845294825291829020805460ff191686151590811790915591519182527f17307eab39ab6107e8899845ad3d59bd9653f200f220920489ca2b5937696c31910160405180910390a3505050565b6114cb8484846110bf565b6114d78484848461153e565b610c105760405162461bcd60e51b815260206004820152603260248201527f4552433732313a207472616e7366657220746f206e6f6e20455243373231526560448201527131b2b4bb32b91034b6b83632b6b2b73a32b960711b6064820152608401610576565b60006001600160a01b0384163b1561167c57604051630a85bd0160e11b81526001600160a01b0385169063150b7a0290611582903390899088908890600401611e93565b6020604051808303816000875af19250505080156115bd575060408051601f3d908101601f191682019092526115ba91810190611ecf565b60015b611662573d8080156115eb576040519150601f19603f3d011682016040523d82523d6000602084013e6115f0565b606091505b50805161165a5760405162461bcd60e51b815260206004820152603260248201527f4552433732313a207472616e7366657220746f206e6f6e20455243373231526560448201527131b2b4bb32b91034b6b83632b6b2b73a32b960711b6064820152608401610576565b805181602001fd5b6001600160e01b031916630a85bd0160e11b1490506110b7565b506001949350505050565b82805461169390611cfb565b90600052602060002090601f0160209004810192826116b557600085556116fb565b82601f106116ce57805160ff19168380011785556116fb565b828001600101855582156116fb579182015b828111156116fb5782518255916020019190600101906116e0565b5061170792915061170b565b5090565b5b80821115611707576000815560010161170c565b6001600160e01b031981168114610e6757600080fd5b60006020828403121561174857600080fd5b813561175381611720565b9392505050565b6000815180845260005b8181101561178057602081850181015186830182015201611764565b81811115611792576000602083870101525b50601f01601f19169290920160200192915050565b602081526000611753602083018461175a565b6000602082840312156117cc57600080fd5b5035919050565b80356001600160a01b03811681146117ea57600080fd5b919050565b6000806040838503121561180257600080fd5b61180b836117d3565b946020939093013593505050565b60008060006060848603121561182e57600080fd5b611837846117d3565b9250611845602085016117d3565b9150604084013590509250925092565b634e487b7160e01b600052604160045260246000fd5b604051601f8201601f1916810167ffffffffffffffff8111828210171561189457611894611855565b604052919050565b600067ffffffffffffffff8311156118b6576118b6611855565b6118c9601f8401601f191660200161186b565b90508281528383830111156118dd57600080fd5b828260208301376000602084830101529392505050565b600082601f83011261190557600080fd5b6117538383356020850161189c565b600080600080600060a0868803121561192c57600080fd5b611935866117d3565b9450602086013567ffffffffffffffff81111561195157600080fd5b61195d888289016118f4565b959895975050505060408401359360608101359360809091013592509050565b60006020828403121561198f57600080fd5b813567ffffffffffffffff8111156119a657600080fd5b6110b7848285016118f4565b6000602082840312156119c457600080fd5b611753826117d3565b600080604083850312156119e057600080fd5b6119e9836117d3565b9150602083013580151581146119fe57600080fd5b809150509250929050565b60008060008060808587031215611a1f57600080fd5b611a28856117d3565b9350611a36602086016117d3565b925060408501359150606085013567ffffffffffffffff811115611a5957600080fd5b8501601f81018713611a6a57600080fd5b611a798782356020840161189c565b91505092959194509250565b60008060408385031215611a9857600080fd5b611aa1836117d3565b9150611aaf602084016117d3565b90509250929050565b600067ffffffffffffffff821115611ad257611ad2611855565b5060051b60200190565b600082601f830112611aed57600080fd5b81356020611b02611afd83611ab8565b61186b565b82815260059290921b84018101918181019086841115611b2157600080fd5b8286015b84811015611b4357611b36816117d3565b8352918301918301611b25565b509695505050505050565b600082601f830112611b5f57600080fd5b81356020611b6f611afd83611ab8565b82815260059290921b84018101918181019086841115611b8e57600080fd5b8286015b84811015611b4357803567ffffffffffffffff811115611bb25760008081fd5b611bc08986838b01016118f4565b845250918301918301611b92565b600082601f830112611bdf57600080fd5b81356020611bef611afd83611ab8565b82815260059290921b84018101918181019086841115611c0e57600080fd5b8286015b84811015611b435780358352918301918301611c12565b600080600080600060a08688031215611c4157600080fd5b853567ffffffffffffffff80821115611c5957600080fd5b611c6589838a01611adc565b96506020880135915080821115611c7b57600080fd5b611c8789838a01611b4e565b95506040880135915080821115611c9d57600080fd5b611ca989838a01611bce565b94506060880135915080821115611cbf57600080fd5b611ccb89838a01611bce565b93506080880135915080821115611ce157600080fd5b50611cee88828901611bce565b9150509295509295909350565b600181811c90821680611d0f57607f821691505b60208210811415611d3057634e487b7160e01b600052602260045260246000fd5b50919050565b6001600160a01b03831681526040602082015260006110b7604083018461175a565b8054600090600181811c9080831680611d7257607f831692505b6020808410821415611d9457634e487b7160e01b600052602260045260246000fd5b818015611da85760018114611db957611de6565b60ff19861689528489019650611de6565b60008881526020902060005b86811015611dde5781548b820152908501908301611dc5565b505084890196505b50505050505092915050565b6000611e07611e018386611d58565b84611d58565b64173539b7b760d91b8152600501949350505050565b634e487b7160e01b600052603260045260246000fd5b634e487b7160e01b600052601160045260246000fd5b6000600019821415611e5d57611e5d611e33565b5060010190565b600082821015611e7657611e76611e33565b500390565b60008219821115611e8e57611e8e611e33565b500190565b60006001600160a01b03808716835280861660208401525083604083015260806060830152611ec5608083018461175a565b9695505050505050565b600060208284031215611ee157600080fd5b81516117538161172056fe4f776e61626c653a2063616c6c6572206973206e6f7420746865206f776e6572a26469706673582212203161cc875ef966a1ccbe77a70795e277e0f75d44a07fb87a1932b5615059dd7f64736f6c634300080b0033",
  "linkReferences": {},
  "deployedLinkReferences": {}
}