{
  "_format": "hh-sol-artifact-1",
  "contractName": "Staking",
  "sourceName": "contracts/farm/Staking.sol",
  "abi": [
    {
      "inputs": [
        {
          "internalType": "address",
          "name": "_speed",
          "type": "address"
        },
        {
          "internalType": "address",
          "name": "_star",
          "type": "address"
        },
        {
          "internalType": "address",
          "name": "_horse",
          "type": "address"
        },
        {
          "internalType": "address",
          "name": "_facility",
          "type": "address"
        },
        {
          "internalType": "uint256",
          "name": "_speedPerBlock",
          "type": "uint256"
        },
        {
          "internalType": "uint256",
          "name": "_startBlock",
          "type": "uint256"
        }
      ],
      "stateMutability": "nonpayable",
      "type": "constructor"
    },
    {
      "anonymous": false,
      "inputs": [
        {
          "indexed": true,
          "internalType": "address",
          "name": "user",
          "type": "address"
        },
        {
          "indexed": false,
          "internalType": "uint256",
          "name": "amount",
          "type": "uint256"
        }
      ],
      "name": "Claim",
      "type": "event"
    },
    {
      "anonymous": false,
      "inputs": [
        {
          "indexed": true,
          "internalType": "address",
          "name": "user",
          "type": "address"
        },
        {
          "indexed": false,
          "internalType": "uint256",
          "name": "amount",
          "type": "uint256"
        }
      ],
      "name": "ClaimNativeToken",
      "type": "event"
    },
    {
      "anonymous": false,
      "inputs": [
        {
          "indexed": true,
          "internalType": "address",
          "name": "user",
          "type": "address"
        },
        {
          "indexed": false,
          "internalType": "address",
          "name": "token",
          "type": "address"
        }
      ],
      "name": "ClaimToken",
      "type": "event"
    },
    {
      "anonymous": false,
      "inputs": [
        {
          "indexed": true,
          "internalType": "address",
          "name": "user",
          "type": "address"
        },
        {
          "indexed": false,
          "internalType": "uint256",
          "name": "tokenId",
          "type": "uint256"
        },
        {
          "indexed": false,
          "internalType": "uint256",
          "name": "popularity",
          "type": "uint256"
        }
      ],
      "name": "DepositFacility",
      "type": "event"
    },
    {
      "anonymous": false,
      "inputs": [
        {
          "indexed": true,
          "internalType": "address",
          "name": "user",
          "type": "address"
        },
        {
          "indexed": false,
          "internalType": "uint256",
          "name": "popularity",
          "type": "uint256"
        },
        {
          "indexed": false,
          "internalType": "uint256",
          "name": "tokenId",
          "type": "uint256"
        }
      ],
      "name": "DepositHorse",
      "type": "event"
    },
    {
      "anonymous": false,
      "inputs": [
        {
          "indexed": true,
          "internalType": "address",
          "name": "user",
          "type": "address"
        },
        {
          "indexed": false,
          "internalType": "uint256",
          "name": "stableTokenId",
          "type": "uint256"
        },
        {
          "indexed": false,
          "internalType": "uint256",
          "name": "popularity",
          "type": "uint256"
        },
        {
          "indexed": false,
          "internalType": "uint256",
          "name": "horseTokenId",
          "type": "uint256"
        }
      ],
      "name": "DepositHorseInStable",
      "type": "event"
    },
    {
      "anonymous": false,
      "inputs": [
        {
          "indexed": true,
          "internalType": "address",
          "name": "user",
          "type": "address"
        },
        {
          "indexed": false,
          "internalType": "uint256",
          "name": "tokenId",
          "type": "uint256"
        }
      ],
      "name": "DepositStable",
      "type": "event"
    },
    {
      "anonymous": false,
      "inputs": [
        {
          "indexed": false,
          "internalType": "address",
          "name": "user",
          "type": "address"
        },
        {
          "indexed": false,
          "internalType": "uint256",
          "name": "amount",
          "type": "uint256"
        }
      ],
      "name": "DepositStar",
      "type": "event"
    },
    {
      "anonymous": false,
      "inputs": [
        {
          "indexed": true,
          "internalType": "address",
          "name": "previousOwner",
          "type": "address"
        },
        {
          "indexed": true,
          "internalType": "address",
          "name": "newOwner",
          "type": "address"
        }
      ],
      "name": "OwnershipTransferred",
      "type": "event"
    },
    {
      "anonymous": false,
      "inputs": [
        {
          "indexed": false,
          "internalType": "address",
          "name": "user",
          "type": "address"
        },
        {
          "indexed": false,
          "internalType": "uint256",
          "name": "amount",
          "type": "uint256"
        }
      ],
      "name": "SetSpeedPerBlock",
      "type": "event"
    },
    {
      "anonymous": false,
      "inputs": [
        {
          "indexed": false,
          "internalType": "uint256",
          "name": "multiplierNumber",
          "type": "uint256"
        }
      ],
      "name": "UpdateMultiplier",
      "type": "event"
    },
    {
      "anonymous": false,
      "inputs": [
        {
          "indexed": true,
          "internalType": "address",
          "name": "user",
          "type": "address"
        },
        {
          "indexed": false,
          "internalType": "uint256",
          "name": "tokenId",
          "type": "uint256"
        },
        {
          "indexed": false,
          "internalType": "uint256",
          "name": "popularity",
          "type": "uint256"
        }
      ],
      "name": "WithdrawFacility",
      "type": "event"
    },
    {
      "anonymous": false,
      "inputs": [
        {
          "indexed": true,
          "internalType": "address",
          "name": "user",
          "type": "address"
        },
        {
          "indexed": false,
          "internalType": "uint256",
          "name": "tokenId",
          "type": "uint256"
        },
        {
          "indexed": false,
          "internalType": "uint256",
          "name": "popularity",
          "type": "uint256"
        }
      ],
      "name": "WithdrawHorse",
      "type": "event"
    },
    {
      "anonymous": false,
      "inputs": [
        {
          "indexed": true,
          "internalType": "address",
          "name": "user",
          "type": "address"
        },
        {
          "indexed": false,
          "internalType": "uint256",
          "name": "stableTokenId",
          "type": "uint256"
        },
        {
          "indexed": false,
          "internalType": "uint256",
          "name": "popularity",
          "type": "uint256"
        },
        {
          "indexed": false,
          "internalType": "uint256",
          "name": "horseTokenId",
          "type": "uint256"
        }
      ],
      "name": "WithdrawHorseInStable",
      "type": "event"
    },
    {
      "anonymous": false,
      "inputs": [
        {
          "indexed": true,
          "internalType": "address",
          "name": "user",
          "type": "address"
        },
        {
          "indexed": false,
          "internalType": "uint256",
          "name": "stableTokenId",
          "type": "uint256"
        }
      ],
      "name": "WithdrawStable",
      "type": "event"
    },
    {
      "anonymous": false,
      "inputs": [
        {
          "indexed": false,
          "internalType": "address",
          "name": "user",
          "type": "address"
        },
        {
          "indexed": false,
          "internalType": "uint256",
          "name": "amount",
          "type": "uint256"
        }
      ],
      "name": "WithdrawStar",
      "type": "event"
    },
    {
      "inputs": [],
      "name": "BONUS_MULTIPLIER",
      "outputs": [
        {
          "internalType": "uint256",
          "name": "",
          "type": "uint256"
        }
      ],
      "stateMutability": "view",
      "type": "function"
    },
    {
      "inputs": [
        {
          "internalType": "address",
          "name": "_receiver",
          "type": "address"
        },
        {
          "internalType": "uint256",
          "name": "_tokenId",
          "type": "uint256"
        }
      ],
      "name": "adminWithDrawHorse",
      "outputs": [],
      "stateMutability": "nonpayable",
      "type": "function"
    },
    {
      "inputs": [
        {
          "internalType": "address",
          "name": "_receiver",
          "type": "address"
        },
        {
          "internalType": "uint256",
          "name": "_tokenId",
          "type": "uint256"
        }
      ],
      "name": "adminWithDrawStable",
      "outputs": [],
      "stateMutability": "nonpayable",
      "type": "function"
    },
    {
      "inputs": [],
      "name": "claim",
      "outputs": [],
      "stateMutability": "nonpayable",
      "type": "function"
    },
    {
      "inputs": [],
      "name": "claimNativeToken",
      "outputs": [],
      "stateMutability": "nonpayable",
      "type": "function"
    },
    {
      "inputs": [
        {
          "internalType": "address",
          "name": "_token",
          "type": "address"
        }
      ],
      "name": "claimToken",
      "outputs": [],
      "stateMutability": "payable",
      "type": "function"
    },
    {
      "inputs": [
        {
          "internalType": "uint256",
          "name": "_tokenId",
          "type": "uint256"
        }
      ],
      "name": "depositFacility",
      "outputs": [],
      "stateMutability": "nonpayable",
      "type": "function"
    },
    {
      "inputs": [
        {
          "internalType": "uint256",
          "name": "_tokenId",
          "type": "uint256"
        }
      ],
      "name": "depositHorse",
      "outputs": [],
      "stateMutability": "nonpayable",
      "type": "function"
    },
    {
      "inputs": [
        {
          "internalType": "uint256",
          "name": "_stableTokenId",
          "type": "uint256"
        },
        {
          "internalType": "uint256",
          "name": "_horseTokenId",
          "type": "uint256"
        }
      ],
      "name": "depositHorseInStable",
      "outputs": [],
      "stateMutability": "nonpayable",
      "type": "function"
    },
    {
      "inputs": [
        {
          "internalType": "uint256",
          "name": "_tokenId",
          "type": "uint256"
        }
      ],
      "name": "depositStable",
      "outputs": [],
      "stateMutability": "nonpayable",
      "type": "function"
    },
    {
      "inputs": [
        {
          "internalType": "uint256",
          "name": "_amount",
          "type": "uint256"
        }
      ],
      "name": "depositStar",
      "outputs": [],
      "stateMutability": "nonpayable",
      "type": "function"
    },
    {
      "inputs": [
        {
          "internalType": "uint256",
          "name": "_tokenId",
          "type": "uint256"
        }
      ],
      "name": "emergencyWithdrawHorse",
      "outputs": [],
      "stateMutability": "nonpayable",
      "type": "function"
    },
    {
      "inputs": [
        {
          "internalType": "address",
          "name": "_user",
          "type": "address"
        },
        {
          "internalType": "uint256",
          "name": "_stableId",
          "type": "uint256"
        }
      ],
      "name": "getHorseInStable",
      "outputs": [
        {
          "internalType": "uint256[2][2]",
          "name": "horses",
          "type": "uint256[2][2]"
        }
      ],
      "stateMutability": "view",
      "type": "function"
    },
    {
      "inputs": [
        {
          "internalType": "uint256",
          "name": "_from",
          "type": "uint256"
        },
        {
          "internalType": "uint256",
          "name": "_to",
          "type": "uint256"
        }
      ],
      "name": "getMultiplier",
      "outputs": [
        {
          "internalType": "uint256",
          "name": "",
          "type": "uint256"
        }
      ],
      "stateMutability": "view",
      "type": "function"
    },
    {
      "inputs": [
        {
          "internalType": "address",
          "name": "_user",
          "type": "address"
        }
      ],
      "name": "getPendingSpeed",
      "outputs": [
        {
          "internalType": "uint256",
          "name": "",
          "type": "uint256"
        }
      ],
      "stateMutability": "view",
      "type": "function"
    },
    {
      "inputs": [
        {
          "internalType": "address",
          "name": "_user",
          "type": "address"
        }
      ],
      "name": "getPlotAvaliable",
      "outputs": [
        {
          "internalType": "uint256",
          "name": "avaliable",
          "type": "uint256"
        }
      ],
      "stateMutability": "nonpayable",
      "type": "function"
    },
    {
      "inputs": [
        {
          "internalType": "uint256",
          "name": "_stableId",
          "type": "uint256"
        }
      ],
      "name": "getPopularityInStable",
      "outputs": [
        {
          "internalType": "uint256",
          "name": "",
          "type": "uint256"
        }
      ],
      "stateMutability": "view",
      "type": "function"
    },
    {
      "inputs": [
        {
          "internalType": "address",
          "name": "_address",
          "type": "address"
        }
      ],
      "name": "getUserDepositHorse",
      "outputs": [
        {
          "components": [
            {
              "internalType": "uint256",
              "name": "tokenId",
              "type": "uint256"
            },
            {
              "internalType": "uint256",
              "name": "lastRewardBlock",
              "type": "uint256"
            },
            {
              "internalType": "uint256",
              "name": "remainBlock",
              "type": "uint256"
            },
            {
              "internalType": "uint256",
              "name": "popularity",
              "type": "uint256"
            }
          ],
          "internalType": "struct Staking.Horse[]",
          "name": "",
          "type": "tuple[]"
        }
      ],
      "stateMutability": "view",
      "type": "function"
    },
    {
      "inputs": [
        {
          "internalType": "address",
          "name": "_address",
          "type": "address"
        },
        {
          "internalType": "uint256",
          "name": "_stableId",
          "type": "uint256"
        }
      ],
      "name": "getUserDepositHorseInStable",
      "outputs": [
        {
          "components": [
            {
              "internalType": "uint256",
              "name": "tokenId",
              "type": "uint256"
            },
            {
              "internalType": "uint256",
              "name": "lastRewardBlock",
              "type": "uint256"
            },
            {
              "internalType": "uint256",
              "name": "remainBlock",
              "type": "uint256"
            },
            {
              "internalType": "uint256",
              "name": "popularity",
              "type": "uint256"
            }
          ],
          "internalType": "struct Staking.Horse[]",
          "name": "",
          "type": "tuple[]"
        }
      ],
      "stateMutability": "view",
      "type": "function"
    },
    {
      "inputs": [
        {
          "internalType": "address",
          "name": "_address",
          "type": "address"
        }
      ],
      "name": "getUserDepositStable",
      "outputs": [
        {
          "components": [
            {
              "internalType": "uint256",
              "name": "tokenId",
              "type": "uint256"
            },
            {
              "components": [
                {
                  "internalType": "uint256",
                  "name": "tokenId",
                  "type": "uint256"
                },
                {
                  "internalType": "uint256",
                  "name": "lastRewardBlock",
                  "type": "uint256"
                },
                {
                  "internalType": "uint256",
                  "name": "remainBlock",
                  "type": "uint256"
                },
                {
                  "internalType": "uint256",
                  "name": "popularity",
                  "type": "uint256"
                }
              ],
              "internalType": "struct Staking.Horse[]",
              "name": "horses",
              "type": "tuple[]"
            },
            {
              "internalType": "uint256",
              "name": "multiplier",
              "type": "uint256"
            },
            {
              "internalType": "uint256",
              "name": "popularity",
              "type": "uint256"
            }
          ],
          "internalType": "struct Staking.Stable[]",
          "name": "",
          "type": "tuple[]"
        }
      ],
      "stateMutability": "view",
      "type": "function"
    },
    {
      "inputs": [
        {
          "internalType": "address",
          "name": "",
          "type": "address"
        },
        {
          "internalType": "address",
          "name": "",
          "type": "address"
        },
        {
          "internalType": "uint256",
          "name": "",
          "type": "uint256"
        },
        {
          "internalType": "bytes",
          "name": "",
          "type": "bytes"
        }
      ],
      "name": "onERC721Received",
      "outputs": [
        {
          "internalType": "bytes4",
          "name": "",
          "type": "bytes4"
        }
      ],
      "stateMutability": "nonpayable",
      "type": "function"
    },
    {
      "inputs": [],
      "name": "owner",
      "outputs": [
        {
          "internalType": "address",
          "name": "",
          "type": "address"
        }
      ],
      "stateMutability": "view",
      "type": "function"
    },
    {
      "inputs": [],
      "name": "plot",
      "outputs": [
        {
          "internalType": "contract IPlot",
          "name": "",
          "type": "address"
        }
      ],
      "stateMutability": "view",
      "type": "function"
    },
    {
      "inputs": [],
      "name": "poolInfo",
      "outputs": [
        {
          "internalType": "uint256",
          "name": "totalStake",
          "type": "uint256"
        },
        {
          "internalType": "uint256",
          "name": "allocPoint",
          "type": "uint256"
        },
        {
          "internalType": "uint256",
          "name": "lastRewardBlock",
          "type": "uint256"
        },
        {
          "internalType": "uint256",
          "name": "accSpeedPerShare",
          "type": "uint256"
        }
      ],
      "stateMutability": "view",
      "type": "function"
    },
    {
      "inputs": [],
      "name": "renounceOwnership",
      "outputs": [],
      "stateMutability": "nonpayable",
      "type": "function"
    },
    {
      "inputs": [
        {
          "internalType": "address",
          "name": "_plot",
          "type": "address"
        }
      ],
      "name": "setPlotAddress",
      "outputs": [],
      "stateMutability": "nonpayable",
      "type": "function"
    },
    {
      "inputs": [
        {
          "internalType": "uint256",
          "name": "_amount",
          "type": "uint256"
        }
      ],
      "name": "setSpeedPerBlock",
      "outputs": [],
      "stateMutability": "nonpayable",
      "type": "function"
    },
    {
      "inputs": [],
      "name": "speed",
      "outputs": [
        {
          "internalType": "contract ISpeed",
          "name": "",
          "type": "address"
        }
      ],
      "stateMutability": "view",
      "type": "function"
    },
    {
      "inputs": [],
      "name": "speedPerBlock",
      "outputs": [
        {
          "internalType": "uint256",
          "name": "",
          "type": "uint256"
        }
      ],
      "stateMutability": "view",
      "type": "function"
    },
    {
      "inputs": [
        {
          "internalType": "address",
          "name": "",
          "type": "address"
        }
      ],
      "name": "starBalance",
      "outputs": [
        {
          "internalType": "uint256",
          "name": "",
          "type": "uint256"
        }
      ],
      "stateMutability": "view",
      "type": "function"
    },
    {
      "inputs": [],
      "name": "startBlock",
      "outputs": [
        {
          "internalType": "uint256",
          "name": "",
          "type": "uint256"
        }
      ],
      "stateMutability": "view",
      "type": "function"
    },
    {
      "inputs": [],
      "name": "totalAllocPoint",
      "outputs": [
        {
          "internalType": "uint256",
          "name": "",
          "type": "uint256"
        }
      ],
      "stateMutability": "view",
      "type": "function"
    },
    {
      "inputs": [
        {
          "internalType": "address",
          "name": "newOwner",
          "type": "address"
        }
      ],
      "name": "transferOwnership",
      "outputs": [],
      "stateMutability": "nonpayable",
      "type": "function"
    },
    {
      "inputs": [
        {
          "internalType": "uint256",
          "name": "multiplierNumber",
          "type": "uint256"
        }
      ],
      "name": "updateMultiplier",
      "outputs": [],
      "stateMutability": "nonpayable",
      "type": "function"
    },
    {
      "inputs": [],
      "name": "updatePool",
      "outputs": [],
      "stateMutability": "nonpayable",
      "type": "function"
    },
    {
      "inputs": [
        {
          "internalType": "address",
          "name": "",
          "type": "address"
        }
      ],
      "name": "userInfo",
      "outputs": [
        {
          "internalType": "uint256",
          "name": "totalHorse",
          "type": "uint256"
        },
        {
          "internalType": "uint256",
          "name": "amount",
          "type": "uint256"
        },
        {
          "internalType": "uint256",
          "name": "rewardDebt",
          "type": "uint256"
        }
      ],
      "stateMutability": "view",
      "type": "function"
    },
    {
      "inputs": [
        {
          "internalType": "address",
          "name": "",
          "type": "address"
        }
      ],
      "name": "userPlots",
      "outputs": [
        {
          "internalType": "uint256",
          "name": "",
          "type": "uint256"
        }
      ],
      "stateMutability": "view",
      "type": "function"
    },
    {
      "inputs": [
        {
          "internalType": "uint256",
          "name": "_tokenId",
          "type": "uint256"
        }
      ],
      "name": "withdrawFacility",
      "outputs": [],
      "stateMutability": "nonpayable",
      "type": "function"
    },
    {
      "inputs": [
        {
          "internalType": "uint256",
          "name": "_tokenId",
          "type": "uint256"
        }
      ],
      "name": "withdrawHorse",
      "outputs": [],
      "stateMutability": "nonpayable",
      "type": "function"
    },
    {
      "inputs": [
        {
          "internalType": "uint256",
          "name": "_stableTokenId",
          "type": "uint256"
        },
        {
          "internalType": "uint256",
          "name": "_horseTokenId",
          "type": "uint256"
        }
      ],
      "name": "withdrawHorseInStable",
      "outputs": [],
      "stateMutability": "nonpayable",
      "type": "function"
    },
    {
      "inputs": [
        {
          "internalType": "uint256",
          "name": "_stableTokenId",
          "type": "uint256"
        }
      ],
      "name": "withdrawStable",
      "outputs": [],
      "stateMutability": "nonpayable",
      "type": "function"
    },
    {
      "inputs": [
        {
          "internalType": "uint256",
          "name": "_amount",
          "type": "uint256"
        }
      ],
      "name": "withdrawStar",
      "outputs": [],
      "stateMutability": "nonpayable",
      "type": "function"
    }
  ],
  "bytecode": "0x6080604052600260135560906014553480156200001b57600080fd5b5060405162004ce538038062004ce58339810160408190526200003e916200015d565b6200004933620000f0565b6001808055600955600480546001600160a01b03199081166001600160a01b0397881617909155600380548216978716979097179096556005805487169386169390931790925560068054909516929093169190911790925560085560128190556040805160808101825260008082526103e8602083018190529282018490526060909101819052600a819055600b829055600c92909255600d91909155601155620001cc565b600080546001600160a01b038381166001600160a01b0319831681178455604051919092169283917f8be0079c531659141344cd1fd0a4f28419497f9722a3daafe3b4186f6b6457e09190a35050565b80516001600160a01b03811681146200015857600080fd5b919050565b60008060008060008060c087890312156200017757600080fd5b620001828762000140565b9550620001926020880162000140565b9450620001a26040880162000140565b9350620001b26060880162000140565b92506080870151915060a087015190509295509295509295565b614b0980620001dc6000396000f3fe6080604052600436106102715760003560e01c80636e63679b11610149578063ba4516c7116100c6578063d93ca7e11161008a578063e3161ddd11610064578063e3161ddd146107e9578063eda6cd72146107fe578063f2fde38b1461081e57600080fd5b8063d93ca7e114610793578063da178cb0146107a9578063e2778d60146107c957600080fd5b8063ba4516c7146106f3578063c20906ac14610713578063ce51916614610733578063d315c6bd14610753578063d68b78201461077357600080fd5b80638aa285501161010d5780638aa285501461063e5780638da5cb5b146106545780638dbb1e3a14610686578063a3cb8fce146106a6578063b7914cda146106c657600080fd5b80636e63679b146105a75780636e808d90146105d4578063715018a6146105f4578063715824e414610609578063805e69a31461061e57600080fd5b806332f289cf116101f25780634e71d92d116101b65780635ffe6146116101905780635ffe614614610547578063629d6789146105675780636c729fa31461058757600080fd5b80634e71d92d146104cf57806351b055b2146104e45780635a2f3d091461050457600080fd5b806332f289cf1461042c5780633516d56d1461043f578063359c0c181461045f5780633de096fb1461048c57806348cd4cb1146104b957600080fd5b806317caf6f11161023957806317caf6f11461035c5780631959a002146103725780631b0d09bd146103cc5780632d9f3b06146103ec5780632f9e7afe1461040c57600080fd5b806302425e7a146102765780630ad7d67d146102b65780630fcfb059146102d857806311580e7d146102f8578063150b7a0214610318575b600080fd5b34801561028257600080fd5b506102a3610291366004614623565b600f6020526000908152604090205481565b6040519081526020015b60405180910390f35b3480156102c257600080fd5b506102d66102d136600461463e565b61083e565b005b3480156102e457600080fd5b506102d66102f336600461463e565b610cb3565b34801561030457600080fd5b506102a3610313366004614623565b611035565b34801561032457600080fd5b5061034361033336600461466d565b630a85bd0160e11b949350505050565b6040516001600160e01b031990911681526020016102ad565b34801561036857600080fd5b506102a360115481565b34801561037e57600080fd5b506103b161038d366004614623565b600e6020526000908152604090206009810154600a820154600b9092015490919083565b604080519384526020840192909252908201526060016102ad565b3480156103d857600080fd5b506102a36103e7366004614623565b611046565b3480156103f857600080fd5b506102d661040736600461463e565b611111565b34801561041857600080fd5b506102d6610427366004614623565b61119f565b6102d661043a366004614623565b611216565b34801561044b57600080fd5b506102d661045a366004614749565b611287565b34801561046b57600080fd5b5061047f61047a366004614623565b6115c9565b6040516102ad919061476b565b34801561049857600080fd5b506104ac6104a7366004614623565b611669565b6040516102ad91906147d1565b3480156104c557600080fd5b506102a360125481565b3480156104db57600080fd5b506102d661177b565b3480156104f057600080fd5b506102d66104ff36600461463e565b611809565b34801561051057600080fd5b50600a54600b54600c54600d546105279392919084565b6040805194855260208501939093529183015260608201526080016102ad565b34801561055357600080fd5b506102d661056236600461463e565b611b8f565b34801561057357600080fd5b506102d6610582366004614749565b611c13565b34801561059357600080fd5b506102d66105a236600461463e565b61204b565b3480156105b357600080fd5b506105c76105c23660046148a6565b61218c565b6040516102ad91906148d0565b3480156105e057600080fd5b506102d66105ef3660046148a6565b612313565b34801561060057600080fd5b506102d66123cc565b34801561061557600080fd5b506102d6612420565b34801561062a57600080fd5b506102a361063936600461463e565b612534565b34801561064a57600080fd5b506102a360095481565b34801561066057600080fd5b506000546001600160a01b03165b6040516001600160a01b0390911681526020016102ad565b34801561069257600080fd5b506102a36106a1366004614749565b61265f565b3480156106b257600080fd5b506102d66106c13660046148a6565b612680565b3480156106d257600080fd5b506102a36106e1366004614623565b60106020526000908152604090205481565b3480156106ff57600080fd5b5061047f61070e3660046148a6565b612707565b34801561071f57600080fd5b5060035461066e906001600160a01b031681565b34801561073f57600080fd5b506102d661074e36600461463e565b6127e6565b34801561075f57600080fd5b506102d661076e36600461463e565b612956565b34801561077f57600080fd5b506102d661078e36600461463e565b612c2f565b34801561079f57600080fd5b506102a360085481565b3480156107b557600080fd5b5060075461066e906001600160a01b031681565b3480156107d557600080fd5b506102d66107e436600461463e565b612e96565b3480156107f557600080fd5b506102d66132cb565b34801561080a57600080fd5b506102d661081936600461463e565b6133c5565b34801561082a57600080fd5b506102d6610839366004614623565b6136ed565b600260015414156108965760405162461bcd60e51b815260206004820152601f60248201527f5265656e7472616e637947756172643a207265656e7472616e742063616c6c0060448201526064015b60405180910390fd5b60026001908155336000908152600e6020908152604080832085845293840190915290205460ff1661090a5760405162461bcd60e51b815260206004820181905260248201527f5769746864726177537461626c653a4e6f20737461626c65207374616b696e67604482015260640161088d565b6109126132cb565b600061091d336137a6565b9050801561092e5761092e82613b12565b600d54600a8301546109509164e8d4a510009161094a91613d5f565b90613d6b565b600b83015560008381526004830160205260408120546007840180549092918391811061097f5761097f614930565b90600052602060002090600402019050600081600101805480602002602001604051908101604052809291908181526020016000905b82821015610a0f5783829060005260206000209060040201604051806080016040529081600082015481526020016001820154815260200160028201548152602001600382015481525050815260200190600101906109b5565b50505050905060005b8151811015610a5a57610a4887838381518110610a3757610a37614930565b602002602001015160000151611287565b80610a528161495c565b915050610a18565b50600554604051632142170760e11b8152306004820152336024820152604481018890526001600160a01b03909116906342842e0e90606401600060405180830381600087803b158015610aad57600080fd5b505af1158015610ac1573d6000803e3d6000fd5b50508454600788019250610ad89150600190614977565b81548110610ae857610ae8614930565b600091825260208083208984526004898101909252604080852054929093020180548452828420919091558054835291205460078701805492945084929091908110610b3657610b36614930565b60009182526020909120825460049092020190815560018083018054610b5f9284019190614503565b506002828101549082015560039182015491015560078501805480610b8657610b8661498e565b60008281526020812060046000199093019283020181815590610bac6001830182614577565b5060006002820181905560039091015590556005546040516385edea1360e01b815260048101889052610c44916001600160a01b0316906385edea13906024015b602060405180830381865afa158015610c0a573d6000803e3d6000fd5b505050506040513d601f19601f82011682018060405250810190610c2e91906149a4565b3360009081526010602052604090205490613d77565b33600081815260106020908152604080832094909455898252600189019052829020805460ff1916905590517fd050e29e581784a455abc0c0f4eaa735b9d7c516f8d2016494a4a2517a1874f590610c9f9089815260200190565b60405180910390a250506001805550505050565b6005546040516385edea1360e01b81526004810183905282916001600160a01b0316906385edea1390602401602060405180830381865afa158015610cfc573d6000803e3d6000fd5b505050506040513d601f19601f82011682018060405250810190610d2091906149a4565b610d2933611046565b1015610d6a5760405162461bcd60e51b815260206004820152601060248201526f283637ba103737ba1032b737bab3b41760811b604482015260640161088d565b336000908152600e60209081526040808320858452600181019092529091205460ff1615610dcc5760405162461bcd60e51b815260206004820152600f60248201526e416c7265616479207374616b696e6760881b604482015260640161088d565b610dd46132cb565b600a81015415610dfc576000610de9336137a6565b90508015610dfa57610dfa82613b12565b505b60055460405163ac7fc26360e01b8152600481018590526000916001600160a01b03169063ac7fc26390602401602060405180830381865afa158015610e46573d6000803e3d6000fd5b505050506040513d601f19601f82011682018060405250810190610e6a91906149a4565b600554604051632142170760e11b8152336004820152306024820152604481018790529192506001600160a01b0316906342842e0e90606401600060405180830381600087803b158015610ebd57600080fd5b505af1158015610ed1573d6000803e3d6000fd5b50505050600782018054600086815260048501602081815260408084209485556001808901808452918520805460ff19168217905586540180875592909152925484918110610f2257610f22614930565b60009182526020909120600491820201888155600281018690556005546040516385edea1360e01b81529283018a9052909250610fc6916001600160a01b03909116906385edea13906024015b602060405180830381865afa158015610f8c573d6000803e3d6000fd5b505050506040513d601f19601f82011682018060405250810190610fb091906149a4565b3360009081526010602052604090205490613d83565b33600090815260106020526040902055600d54600a860154610ff29164e8d4a510009161094a91613d5f565b600b86015560405187815233907f6fe2ec301721504fee6474a556f42efb81e5b8f3d3a12681f9cb4360846369349060200160405180910390a250505050505050565b6000611040826137a6565b92915050565b6007546000906001600160a01b031661107e576001600160a01b03821660009081526010602052604090205460145461104091613d77565b6001600160a01b0382811660008181526010602052604090819020546007549151630627a5a560e51b8152600481019390935261104093909291169063c4f4b4a0906024016020604051808303816000875af11580156110e2573d6000803e3d6000fd5b505050506040513d601f19601f8201168201806040525081019061110691906149a4565b90613d77565b919050565b6000546001600160a01b031633146111595760405162461bcd60e51b81526020600482018190526024820152600080516020614ab4833981519152604482015260640161088d565b6111616132cb565b60408051338152602081018390527f14c9ac8d9c699fd317d7d9f68c61e171747c6fd98d7dbbc3706d7130ec470991910160405180910390a1600855565b6000546001600160a01b031633146111e75760405162461bcd60e51b81526020600482018190526024820152600080516020614ab4833981519152604482015260640161088d565b6007805473ffffffffffffffffffffffffffffffffffffffff19166001600160a01b0392909216919091179055565b3466b1a2bc2ec50000146112465760405162461bcd60e51b8152602060048201526000602482015260440161088d565b6040516001600160a01b038216815233907f6f44610f6027e5fb5753d333b496e05bf7f5325ccba6dc9a23d1636a18952eef9060200160405180910390a250565b336000908152600e602090815260408083208584526001810190925290912054600a919060ff1661130a5760405162461bcd60e51b815260206004820152602760248201527f5769746864726177486f727365496e537461626c653a4e6f20737461626c65206044820152667374616b696e6760c81b606482015260840161088d565b60008381526020829052604090205460ff166113685760405162461bcd60e51b815260206004820152601860248201527f75736572206973206e6f7420686f727365206f776e65722e0000000000000000604482015260640161088d565b6113706132cb565b600061137b336137a6565b9050801561138c5761138c82613b12565b600085815260048301602052604081205460078401805490919081106113b4576113b4614930565b906000526020600020906004020190506113db6113d087612534565b600a85015490613d77565b600a8401556113f46113ec87612534565b855490613d77565b8455600085815260208481526040808320805460ff191690558883526002909152902061142690600183019087613d8f565b60008681526002602090815260408083208884529091528120556009830154611450906001613d77565b600984015561146c61146187612534565b600a85015490613d83565b600a8401819055600d5461148b9164e8d4a510009161094a9190613d5f565b600b8401556114a461149c87612534565b855490613d83565b8455600654604051632142170760e11b8152306004820152336024820152604481018790526001600160a01b03909116906342842e0e90606401600060405180830381600087803b1580156114f857600080fd5b505af115801561150c573d6000803e3d6000fd5b50506006546040516327904e5d60e21b8152600481018990523393507fe7a100c752dba22e443721b787db096eaabbd5942e0213b99029020e56153d4d925089916001600160a01b031690639e41397490602401602060405180830381865afa15801561157d573d6000803e3d6000fd5b505050506040513d601f19601f820116820180604052508101906115a191906149a4565b60408051928352602083019190915281018890526060015b60405180910390a2505050505050565b6001600160a01b0381166000908152600e60209081526040808320600601805482518185028101850190935280835260609492939192909184015b8282101561165e578382906000526020600020906004020160405180608001604052908160008201548152602001600182015481526020016002820154815260200160038201548152505081526020019060010190611604565b505050509050919050565b6001600160a01b0381166000908152600e60209081526040808320600701805482518185028101850190935280835260609492939192909184015b8282101561165e57838290600052602060002090600402016040518060800160405290816000820154815260200160018201805480602002602001604051908101604052809291908181526020016000905b828210156117505783829060005260206000209060040201604051806080016040529081600082015481526020016001820154815260200160028201548152602001600382015481525050815260200190600101906116f6565b50505050815260200160028201548152602001600382015481525050815260200190600101906116a4565b6117836132cb565b336000818152600e602052604081209161179c906137a6565b905080156117cf576117ad82613b12565b600d54600a8301546117c99164e8d4a510009161094a91613d5f565b600b8301555b60405181815233907f47cee97cb7acd717b3c0aa1435d004cd5b3c8c57d70dbceb4e4458bbd60e39d4906020015b60405180910390a25050565b6002600154141561185c5760405162461bcd60e51b815260206004820152601f60248201527f5265656e7472616e637947756172643a207265656e7472616e742063616c6c00604482015260640161088d565b60026001819055336000908152600e60209081526040808320858452938401909152902054600a919060ff166118d45760405162461bcd60e51b815260206004820152601360248201527f4e6f20666163696c697479207374616b696e6700000000000000000000000000604482015260640161088d565b60008381526002820160205260409020805460ff191690556118f46132cb565b60006118ff336137a6565b905080156119105761191082613b12565b600554604051632142170760e11b8152306004820152336024820152604481018690526001600160a01b03909116906342842e0e90606401600060405180830381600087803b15801561196257600080fd5b505af1158015611976573d6000803e3d6000fd5b5050505060088201805461198b906001613d77565b8154811061199b5761199b614930565b90600052602060002001548260080183600501600087815260200190815260200160002054815481106119d0576119d0614930565b6000918252602080832090910192909255858152600584019182905260408120546008850180549193929184908110611a0b57611a0b614930565b906000526020600020015481526020019081526020016000208190555081600801805480611a3b57611a3b61498e565b600082815260208120600019908301810182905590910190915560055460405163105a872160e31b8152600481018790526001600160a01b03909116906382d4390890602401602060405180830381865afa158015611a9e573d6000803e3d6000fd5b505050506040513d601f19601f82011682018060405250810190611ac291906149a4565b600a840154909150611ad49082613d77565b600a8401819055600d54611af39164e8d4a510009161094a9190613d5f565b600b8401556005546040516385edea1360e01b815260048101879052611b2b916001600160a01b0316906385edea1390602401610bed565b336000908152601060205260409020558354611b479082613d77565b8455604080518681526020810183905233917f4574e895e80307ec02b0b982b0c437f03aa599776ae3dca2e8953b5520c262d4910160405180910390a2505060018055505050565b6000546001600160a01b03163314611bd75760405162461bcd60e51b81526020600482018190526024820152600080516020614ab4833981519152604482015260640161088d565b60098190556040518181527fa0be54773ac26c27d6d0e44698c6b7c95df74fcf44847d1561849a34fc48b078906020015b60405180910390a150565b336000908152600e6020908152604080832060090154601354600f909352922054611c519190611c4b90670de0b6b3a7640000613d6b565b90613d83565b11611c915760405162461bcd60e51b815260206004820152601060248201526f29b637ba103737ba1032b737bab3b41760811b604482015260640161088d565b336000908152600e602090815260408083208584526001810190925290912054600a919060ff16611d135760405162461bcd60e51b815260206004820152602660248201527f4465706f736974486f727365496e537461626c653a4e6f20737461626c65207360448201526574616b696e6760d01b606482015260840161088d565b611d1b6132cb565b600a81015415611d43576000611d30336137a6565b90508015611d4157611d4182613b12565b505b6006546040516327904e5d60e21b8152600481018590526000916001600160a01b031690639e41397490602401602060405180830381865afa158015611d8d573d6000803e3d6000fd5b505050506040513d601f19601f82011682018060405250810190611db191906149a4565b600086815260048401602052604081205460078501805493945091928110611ddb57611ddb614930565b906000526020600020906004020190506002816001018054905010611e325760405162461bcd60e51b815260206004820152600d60248201526c6f76657220636170616369747960981b604482015260640161088d565b600654604051632142170760e11b8152336004820152306024820152604481018790526001600160a01b03909116906342842e0e90606401600060405180830381600087803b158015611e8457600080fd5b505af1158015611e98573d6000803e3d6000fd5b505050600086815260208581526040808320805460ff19166001908117909155850180548b8552600284528285208b865284529382902093909355805160808101825289815243928101929092526006548151632f00d3d960e01b8152600481018b90529394509192908301916001600160a01b031690632f00d3d990602401602060405180830381865afa158015611f35573d6000803e3d6000fd5b505050506040513d601f19601f82011682018060405250810190611f5991906149a4565b81526020908101859052825460018181018555600094855293829020835160049092020190815590820151928101929092556040810151600280840191909155606090910151600390920191909155810154611fba90611461908490613d5f565b600a8401556009830154611fcf906001613d83565b6009840155600d54600a840154611ff09164e8d4a510009161094a91613d5f565b600b84015560028101546120099061149c908490613d5f565b8455604080518781526020810184905290810186905233907f81c46afb6f5b3e1751a2983eaffc4497cf0981ae0fb22df1e4f5983b230cdfce906060016115b9565b60048054604051636eb1769f60e11b8152339281019290925230602483015282916001600160a01b039091169063dd62ed3e90604401602060405180830381865afa15801561209e573d6000803e3d6000fd5b505050506040513d601f19601f820116820180604052508101906120c291906149a4565b10156121105760405162461bcd60e51b815260206004820152601260248201527f637265646974206e6f7420656e6f756774680000000000000000000000000000604482015260640161088d565b600454612128906001600160a01b0316333084613eab565b336000908152600f60205260409020546121429082613d83565b336000818152600f60209081526040918290209390935580519182529181018390527f5783319f5abab0d1488786f95afbeb3c8c20554a0a9d99bcfba176a3ea7b64929101611c08565b612194614598565b6001600160a01b0383166000908152600e60205260408120905b600782015481101561230b57838260070182815481106121d0576121d0614930565b90600052602060002090600402016000015414156122f95760005b82600701828154811061220057612200614930565b9060005260206000209060040201600101805490508110156122f75782600701828154811061223157612231614930565b9060005260206000209060040201600101818154811061225357612253614930565b90600052602060002090600402016000015484826002811061227757612277614930565b6020020151526007830180548390811061229357612293614930565b906000526020600020906004020160010181815481106122b5576122b5614930565b9060005260206000209060040201600301548482600281106122d9576122d9614930565b602002015160016020020152806122ef8161495c565b9150506121eb565b505b806123038161495c565b9150506121ae565b505092915050565b6000546001600160a01b0316331461235b5760405162461bcd60e51b81526020600482018190526024820152600080516020614ab4833981519152604482015260640161088d565b600554604051632142170760e11b81523060048201526001600160a01b03848116602483015260448201849052909116906342842e0e906064015b600060405180830381600087803b1580156123b057600080fd5b505af11580156123c4573d6000803e3d6000fd5b505050505050565b6000546001600160a01b031633146124145760405162461bcd60e51b81526020600482018190526024820152600080516020614ab4833981519152604482015260640161088d565b61241e6000613f31565b565b6000546001600160a01b031633146124685760405162461bcd60e51b81526020600482018190526024820152600080516020614ab4833981519152604482015260640161088d565b6040514790600090339083908381818185875af1925050503d80600081146124ac576040519150601f19603f3d011682016040523d82523d6000602084013e6124b1565b606091505b50509050806125025760405162461bcd60e51b815260206004820152601b60248201527f4661696c656420746f2073656e64204e617469766520546f6b656e0000000000604482015260640161088d565b60405182815233907f82c2988e10a053d97d29780b2e8068add0fdc19ac323068d4a2344817475038d906020016117fd565b336000908152600e6020526040812081805b6000858152600484016020526040902054600784018054909190811061256e5761256e614930565b90600052602060002090600402016001018054905081101561260b5760008581526004840160205260409020546007840180546125f7929081106125b4576125b4614930565b906000526020600020906004020160010182815481106125d6576125d6614930565b90600052602060002090600402016003015483613d8390919063ffffffff16565b9150806126038161495c565b915050612546565b5060008481526004830160205260409020546007830180546126579290811061263657612636614930565b90600052602060002090600402016002015482613d5f90919063ffffffff16565b949350505050565b600954600090612679906126738486613d77565b90613d5f565b9392505050565b6000546001600160a01b031633146126c85760405162461bcd60e51b81526020600482018190526024820152600080516020614ab4833981519152604482015260640161088d565b600654604051632142170760e11b81523060048201526001600160a01b03848116602483015260448201849052909116906342842e0e90606401612396565b6001600160a01b0382166000818152600e60208181526040808420868552600481018352908420549490935252600701805460609291908290811061274e5761274e614930565b9060005260206000209060040201600101805480602002602001604051908101604052809291908181526020016000905b828210156127d957838290600052602060002090600402016040518060800160405290816000820154815260200160018201548152602001600282015481526020016003820154815250508152602001906001019061277f565b5050505091505092915050565b336000908152600f60205260409020548111156128455760405162461bcd60e51b815260206004820152601660248201527f7769746864726177206f7665722062616c616e63652e00000000000000000000604482015260640161088d565b336000908152600f602052604090205461286d90670de0b6b3a76400009061094a9084613d77565b601354336000908152600e602052604090206009015461288c91613d77565b11156128da5760405162461bcd60e51b815260206004820152601e60248201527f776974686472617720686f727365206265666f726520756e7374616b652e0000604482015260640161088d565b336000908152600f60205260409020546128f49082613d77565b336000818152600f6020526040902091909155600454612920916001600160a01b039091169083613f8e565b60408051338152602081018390527fb5ef3e78c60e080bafc022bbcc8a220ecc9d3277576cd23f9a37d0d26440618e9101611c08565b600260015414156129a95760405162461bcd60e51b815260206004820152601f60248201527f5265656e7472616e637947756172643a207265656e7472616e742063616c6c00604482015260640161088d565b6002600155336000908152600e602090815260408083208484529182905290912054600a919060ff16612a1e5760405162461bcd60e51b815260206004820152601760248201527f7769746864726177486f7273653a206e6f7420676f6f64000000000000000000604482015260640161088d565b612a266132cb565b6000612a31336137a6565b90508015612a4257612a4282613b12565b6006546040516327904e5d60e21b8152600481018690526000916001600160a01b031690639e41397490602401602060405180830381865afa158015612a8c573d6000803e3d6000fd5b505050506040513d601f19601f82011682018060405250810190612ab091906149a4565b600684018054919250600091612ac890600190614977565b81548110612ad857612ad8614930565b9060005260206000209060040201600001549050612afd846006018560030188613d8f565b600086815260038501602052604080822080548484529183209190915587825255600a840154612b2d9083613d77565b600a8501556009840154612b42906001613d77565b600985015560008681526020859052604090819020805460ff191690556006549051632142170760e11b8152306004820152336024820152604481018890526001600160a01b03909116906342842e0e90606401600060405180830381600087803b158015612bb057600080fd5b505af1158015612bc4573d6000803e3d6000fd5b5050600d54600a870154612be4935064e8d4a51000925061094a91613d5f565b600b8501558454612bf59083613d77565b8555604080518781526020810184905233917fbe26ada391ade8e6600b6bef78f6dbed6f8835e50225b8730324bc1f1ba888079101610c9f565b336000908152600e602090815260408083208484529182905290912054600a919060ff16612c9f5760405162461bcd60e51b815260206004820152601760248201527f7769746864726177486f7273653a206e6f7420676f6f64000000000000000000604482015260640161088d565b6006546040516327904e5d60e21b8152600481018590526000916001600160a01b031690639e41397490602401602060405180830381865afa158015612ce9573d6000803e3d6000fd5b505050506040513d601f19601f82011682018060405250810190612d0d91906149a4565b600683018054919250600091612d2590600190614977565b81548110612d3557612d35614930565b9060005260206000209060040201600001549050612d5a836006018460030187613d8f565b600085815260038401602052604080822080548484529183209190915586825255600a830154612d8a9083613d77565b600a8401556009830154612d9f906001613d77565b600984015560008581526020849052604090819020805460ff191690556006549051632142170760e11b8152306004820152336024820152604481018790526001600160a01b03909116906342842e0e90606401600060405180830381600087803b158015612e0d57600080fd5b505af1158015612e21573d6000803e3d6000fd5b5050600d54600a860154612e41935064e8d4a51000925061094a91613d5f565b600b8401558354612e529083613d77565b8455604080518681526020810184905233917fbe26ada391ade8e6600b6bef78f6dbed6f8835e50225b8730324bc1f1ba88807910160405180910390a25050505050565b336000908152600e6020908152604080832060090154601354600f909352922054612ece9190611c4b90670de0b6b3a7640000613d6b565b11612f0e5760405162461bcd60e51b815260206004820152601060248201526f29b637ba103737ba1032b737bab3b41760811b604482015260640161088d565b60065460405163e985e9c560e01b81523360048201523060248201526001600160a01b039091169063e985e9c5906044016020604051808303816000875af1158015612f5e573d6000803e3d6000fd5b505050506040513d601f19601f82011682018060405250810190612f8291906149bd565b612fce5760405162461bcd60e51b815260206004820152601360248201527f506c656173652073657420617070726f76616c00000000000000000000000000604482015260640161088d565b336000908152600e602090815260408083208484529182905290912054600a919060ff16156130315760405162461bcd60e51b815260206004820152600f60248201526e416c7265616479207374616b696e6760881b604482015260640161088d565b6130396132cb565b600a8101541561306157600061304e336137a6565b9050801561305f5761305f82613b12565b505b6006546040516327904e5d60e21b8152600481018590526000916001600160a01b031690639e41397490602401602060405180830381865afa1580156130ab573d6000803e3d6000fd5b505050506040513d601f19601f820116820180604052508101906130cf91906149a4565b600654604051632142170760e11b8152336004820152306024820152604481018790529192506001600160a01b0316906342842e0e90606401600060405180830381600087803b15801561312257600080fd5b505af1158015613136573d6000803e3d6000fd5b505050600085815260208481526040808320805460ff191660011790556006860154600387019092529091205550600a8201546131739082613d83565b600a8301556009820154613188906001613d83565b600983015560408051608081018252858152436020820152600680548351632f00d3d960e01b815260048101899052918601938301916001600160a01b0390911690632f00d3d990602401602060405180830381865afa1580156131f0573d6000803e3d6000fd5b505050506040513d601f19601f8201168201806040525081019061321491906149a4565b81526020908101849052825460018181018555600094855293829020835160049092020190815590820151928101929092556040810151600283015560600151600390910155600d54600a8301546132769164e8d4a510009161094a91613d5f565b600b83015582546132879082613d83565b8355604080518281526020810186905233917f42b9d06629990a8ef6c4ae997e0227c4a68fe7bbca342a6e94149c689bb72ea291015b60405180910390a250505050565b600c54600a9043116132da5750565b8054806132eb575043600290910155565b60006132fb83600201544361265f565b9050600061332260115461094a866001015461267360085487613d5f90919063ffffffff16565b6003546040516340c10f1960e01b8152306004820152602481018390529192506001600160a01b0316906340c10f1990604401600060405180830381600087803b15801561336f57600080fd5b505af1158015613383573d6000803e3d6000fd5b505050506133b16133a68461094a64e8d4a5100085613d5f90919063ffffffff16565b600386015490613d83565b600385015550504360029092019190915550565b6005546040516385edea1360e01b81526004810183905282916001600160a01b0316906385edea1390602401602060405180830381865afa15801561340e573d6000803e3d6000fd5b505050506040513d601f19601f8201168201806040525081019061343291906149a4565b61343b33611046565b101561347c5760405162461bcd60e51b815260206004820152601060248201526f283637ba103737ba1032b737bab3b41760811b604482015260640161088d565b336000908152600e60209081526040808320858452600281019092529091205460ff16156134de5760405162461bcd60e51b815260206004820152600f60248201526e416c7265616479207374616b696e6760881b604482015260640161088d565b6134e66132cb565b600a8101541561350e5760006134fb336137a6565b9050801561350c5761350c82613b12565b505b600554604051632142170760e11b8152336004820152306024820152604481018590526001600160a01b03909116906342842e0e90606401600060405180830381600087803b15801561356057600080fd5b505af1158015613574573d6000803e3d6000fd5b505060055460405163105a872160e31b815260048101879052600093506001600160a01b0390911691506382d4390890602401602060405180830381865afa1580156135c4573d6000803e3d6000fd5b505050506040513d601f19601f820116820180604052508101906135e891906149a4565b600a8301549091506135fa9082613d83565b600a8084019190915560008581526002840160209081526040808320805460ff19166001908117909155600887018054600589018552928520839055908201815583529120018590555461364e9082613d83565b600a556005546040516385edea1360e01b815260048101869052613684916001600160a01b0316906385edea1390602401610f6f565b33600090815260106020526040902055600d54600a8301546136b09164e8d4a510009161094a91613d5f565b600b830155604080518581526020810183905233917fe9dc413f1e3ca294ce8f483d9004f82dfb07f8c60ddb58fd6a488d57125510da91016132bd565b6000546001600160a01b031633146137355760405162461bcd60e51b81526020600482018190526024820152600080516020614ab4833981519152604482015260640161088d565b6001600160a01b03811661379a5760405162461bcd60e51b815260206004820152602660248201527f4f776e61626c653a206e6577206f776e657220697320746865207a65726f206160448201526564647265737360d01b606482015260840161088d565b6137a381613f31565b50565b6001600160a01b0381166000908152600e60205260408120600d54600a8054600c5491939291431180156137d957508015155b156138395760006137ee85600201544361265f565b9050600061381560115461094a886001015461267360085487613d5f90919063ffffffff16565b905061383461382d8461094a8464e8d4a51000613d5f565b8590613d83565b935050505b600061386384600b015461110664e8d4a5100061094a8789600a0154613d5f90919063ffffffff16565b90508015613b0557600061388485600a015483613d6b90919063ffffffff16565b905060008061391487600601805480602002602001604051908101604052809291908181526020016000905b8282101561390a5783829060005260206000209060040201604051806080016040529081600082015481526020016001820154815260200160028201548152602001600382015481525050815260200190600101906138b0565b5050505084613fc3565b5090506139218282613d83565b915060005b60088801548110156139f7576139e36139dc85600560009054906101000a90046001600160a01b03166001600160a01b03166382d439088c600801868154811061397257613972614930565b90600052602060002001546040518263ffffffff1660e01b815260040161399b91815260200190565b602060405180830381865afa1580156139b8573d6000803e3d6000fd5b505050506040513d601f19601f8201168201806040525081019061267391906149a4565b8490613d83565b9250806139ef8161495c565b915050613926565b5060005b6007880154811015613af6576000886007018281548110613a1e57613a1e614930565b906000526020600020906004020190506000613abb82600101805480602002602001604051908101604052809291908181526020016000905b82821015613ab1578382906000526020600020906004020160405180608001604052908160008201548152602001600182015481526020016002820154815260200160038201548152505081526020019060010190613a57565b5050505087613fc3565b509050613adf613ad8836002015483613d5f90919063ffffffff16565b8690613d83565b945050508080613aee9061495c565b9150506139fb565b50909998505050505050505050565b5060009695505050505050565b6000613b4182600b015461110664e8d4a5100061094a600a6003015487600a0154613d5f90919063ffffffff16565b90508015613d5b576000613b6283600a015483613d6b90919063ffffffff16565b9050600080600080613b778760060186614125565b9092509050613b868483613d83565b935080925060005b6008880154811015613c68576005546008890180546000926001600160a01b0316916382d439089185908110613bc657613bc6614930565b90600052602060002001546040518263ffffffff1660e01b8152600401613bef91815260200190565b602060405180830381865afa158015613c0c573d6000803e3d6000fd5b505050506040513d601f19601f82011682018060405250810190613c3091906149a4565b9050613c46613c3f8289613d5f565b8790613d83565b9550613c528582613d83565b9450508080613c609061495c565b915050613b8e565b5060005b6007880154811015613d17576000886007018281548110613c8f57613c8f614930565b90600052602060002090600402019050600080613caf836001018a614125565b91509150613cd4613ccd846002015484613d5f90919063ffffffff16565b8990613d83565b9750613ced836002015482613d5f90919063ffffffff16565b60038401819055613cff908890613d83565b96505050508080613d0f9061495c565b915050613c6c565b508287600a01541115613d4b57600a870154613d4090613d379085613d77565b600a5490613d77565b600a90815587018390555b613d5533856142ed565b50505050505b5050565b600061267982846149df565b600061267982846149fe565b60006126798284614977565b60006126798284614a20565b8254600114613e6a5782548390613da890600190614977565b81548110613db857613db8614930565b9060005260206000209060040201838360008481526020019081526020016000205481548110613dea57613dea614930565b60009182526020808320845460049093020191825560018085015490830155600280850154908301556003938401549390910192909255828152908390526040812054845490918491869084908110613e4557613e45614930565b9060005260206000209060040201600001548152602001908152602001600020819055505b82805480613e7a57613e7a61498e565b6000828152602081206004600019909301928302018181556001810182905560028101829055600301559055505050565b6040516001600160a01b0380851660248301528316604482015260648101829052613f2b9085906323b872dd60e01b906084015b60408051601f198184030181529190526020810180517bffffffffffffffffffffffffffffffffffffffffffffffffffffffff166001600160e01b031990931692909217909152614326565b50505050565b600080546001600160a01b0383811673ffffffffffffffffffffffffffffffffffffffff19831681178455604051919092169283917f8be0079c531659141344cd1fd0a4f28419497f9722a3daafe3b4186f6b6457e09190a35050565b6040516001600160a01b038316602482015260448101829052613fbe90849063a9059cbb60e01b90606401613edf565b505050565b60008060008060005b8651811015614119576000878281518110613fe957613fe9614930565b6020026020010151905060008160200151436140059190614977565b90508061404857614026613ad883606001518a613d5f90919063ffffffff16565b945061403f826060015185613d8390919063ffffffff16565b93505050614107565b60006140548983613d6b565b90506000614063826005613d6b565b905083604001518311156140cf5760008460400151846140839190614977565b90506140a7613ccd8660600151612673868960400151613d5f90919063ffffffff16565b97506140c7613ccd86606001516126738585613d5f90919063ffffffff16565b9750506140f0565b60608401516140ed906140e6906126738686613d5f565b8890613d83565b96505b6060840151614100908790613d83565b9550505050505b806141118161495c565b915050613fcc565b50909590945092505050565b60008060008060005b865481101561411957600087828154811061414b5761414b614930565b90600052602060002090600402019050600081600101544361416d9190614977565b90508061418d576003820154614184908590613d83565b935050506142db565b60006141998983613d6b565b905060006141a8826005613d6b565b9050836002015483111561428f5760008460020154846141c89190614977565b90506141ec613ccd8660030154612673868960020154613d5f90919063ffffffff16565b975061420c613ccd86600301546126738585613d5f90919063ffffffff16565b60065486546040516327904e5d60e21b815260048101919091529199506001600160a01b031690639e41397490602401602060405180830381865afa158015614259573d6000803e3d6000fd5b505050506040513d601f19601f8201168201806040525081019061427d91906149a4565b600386015550600060028501556142be565b60038401546142a6906140e6906126738686613d5f565b60028501549097506142b89084613d77565b60028501555b43600185015560038401546142d4908790613d83565b9550505050505b806142e58161495c565b91505061412e565b60035460405163a9059cbb60e01b81526001600160a01b038481166004830152602482018490529091169063a9059cbb90604401612396565b600061437b826040518060400160405280602081526020017f5361666545524332303a206c6f772d6c6576656c2063616c6c206661696c6564815250856001600160a01b03166143f89092919063ffffffff16565b805190915015613fbe578080602001905181019061439991906149bd565b613fbe5760405162461bcd60e51b815260206004820152602a60248201527f5361666545524332303a204552433230206f7065726174696f6e20646964206e6044820152691bdd081cdd58d8d9595960b21b606482015260840161088d565b6060612657848460008585843b6144515760405162461bcd60e51b815260206004820152601d60248201527f416464726573733a2063616c6c20746f206e6f6e2d636f6e7472616374000000604482015260640161088d565b600080866001600160a01b0316858760405161446d9190614a64565b60006040518083038185875af1925050503d80600081146144aa576040519150601f19603f3d011682016040523d82523d6000602084013e6144af565b606091505b50915091506144bf8282866144ca565b979650505050505050565b606083156144d9575081612679565b8251156144e95782518084602001fd5b8160405162461bcd60e51b815260040161088d9190614a80565b8280548282559060005260206000209060040281019282156145675760005260206000209160040282015b8281111561456757825482556001808401549083015560028084015490830155600380840154908301556004928301929091019061452e565b506145739291506145c5565b5090565b50805460008255600402906000526020600020908101906137a391906145c5565b60405180604001604052806002905b6145af6145ee565b8152602001906001900390816145a75790505090565b5b80821115614573576000808255600182018190556002820181905560038201556004016145c6565b60405180604001604052806002906020820280368337509192915050565b80356001600160a01b038116811461110c57600080fd5b60006020828403121561463557600080fd5b6126798261460c565b60006020828403121561465057600080fd5b5035919050565b634e487b7160e01b600052604160045260246000fd5b6000806000806080858703121561468357600080fd5b61468c8561460c565b935061469a6020860161460c565b925060408501359150606085013567ffffffffffffffff808211156146be57600080fd5b818701915087601f8301126146d257600080fd5b8135818111156146e4576146e4614657565b604051601f8201601f19908116603f0116810190838211818310171561470c5761470c614657565b816040528281528a602084870101111561472557600080fd5b82602086016020830137600060208483010152809550505050505092959194509250565b6000806040838503121561475c57600080fd5b50508035926020909101359150565b6020808252825182820181905260009190848201906040850190845b818110156147c55783518051845260208082015190850152604080820151908501526060908101519084015260808301938501939250600101614787565b50909695505050505050565b60006020808301818452808551808352604092508286019150828160051b8701018488016000805b8481101561489757898403603f190186528251805185528881015160808a8701819052815190870181905260a08701918b019085905b80821015614871578251805185526020808201519086015260408082015190860152606090810151908501526080840193508c8301925060018201915061482f565b50505081890151868a0152606091820151919095015294870194918701916001016147f9565b50919998505050505050505050565b600080604083850312156148b957600080fd5b6148c28361460c565b946020939093013593505050565b6080810181836000805b60028082106148e95750614926565b835185845b8381101561490c5782518252602092830192909101906001016148ee565b5050506040949094019350602092909201916001016148da565b5050505092915050565b634e487b7160e01b600052603260045260246000fd5b634e487b7160e01b600052601160045260246000fd5b600060001982141561497057614970614946565b5060010190565b60008282101561498957614989614946565b500390565b634e487b7160e01b600052603160045260246000fd5b6000602082840312156149b657600080fd5b5051919050565b6000602082840312156149cf57600080fd5b8151801515811461267957600080fd5b60008160001904831182151516156149f9576149f9614946565b500290565b600082614a1b57634e487b7160e01b600052601260045260246000fd5b500490565b60008219821115614a3357614a33614946565b500190565b60005b83811015614a53578181015183820152602001614a3b565b83811115613f2b5750506000910152565b60008251614a76818460208701614a38565b9190910192915050565b6020815260008251806020840152614a9f816040850160208701614a38565b601f01601f1916919091016040019291505056fe4f776e61626c653a2063616c6c6572206973206e6f7420746865206f776e6572a2646970667358221220cf2fb88f5fccb7fa314b616f373c7448ef3a90fdbab2e0d8afb8bfe6ad7acd4f64736f6c634300080b0033",
  "linkReferences": {},
  "deployedLinkReferences": {}
}